:020000040800F2
:1000000000000220F5690008490200084D020008BE
:100010004F020008510200085302000800000000CF
:100020000000000000000000000000005D6A000801
:10003000550200080000000059020008210A0008CB
:100040007D6A00087D6A00087D6A00087D6A0008F4
:100050007D6A00087D6A0008690C00088D0C0008A4
:10006000B10C0008D50C0008F90C00086515000853
:1000700025160008ED160008B51700087D180008C1
:100080003D190008051A00087D6A000800000000FC
:100090000000000000000000000000001D0D00082E
:1000A0007D6A00087D6A00087D6A00087D6A000894
:1000B000D5260008012700082D2700087D6A0008C2
:1000C0007D6A00087D6A00087D6A00087D6A000874
:1000D0007D6A00087D6A0008753000080000000095
:1000E000ED0D00087D6A00087D6A00080000000030
:1000F000000000000000000000000000CD1A000811
:10010000000000007D6A0008592700087D6A000889
:1001100000000000000000000000000000000000DF
:10012000951B0008551C00081D1D0008E51D000852
:10013000AD1E0008000000000000000000000000EC
:100140000000000000000000000000007D6A0008C0
:100150006D1F000835200008FD2000087D6A00089A
:100160007D6A00087D6A00080000000000000000B1
:10017000000000000000000000000000000000007F
:10018000000000007D6A0008000000000000000080
:080190007D6A00087D6A000889
:1001C0000348044B834202D0034B03B118477047E6
:1001D000A40A0020A40A00200000000005480649E7
:1001E0000B1AD90F01EBA301491002D0034B03B145
:1001F00018477047A40A0020A40A0020000000004D
:1002000010B5064C237843B9FFF7DAFF044B13B15E
:100210000448AFF300800123237010BDA40A00201E
:10022000000000000C8D000808B5044B1BB1044908
:100230000448AFF30080BDE80840CFE700000000AD
:10024000A80A00200C8D000800BF7047FEE7FEE7FB
:10025000FEE7FEE700BF704700BF704782B003466D
:100260008DF807309DF80730052B00F2928001A22F
:1002700052F823F08D020008B5020008DD020008E4
:10028000050300082D03000855030008424B1B68B6
:1002900003F00103002B71D13F4B1B683E4A43F032
:1002A0000103136000BF3C4B1B6803F00203002BEB
:1002B000F9D063E0384B1B6803F48033002B5FD127
:1002C000354B1B68344A43F45023136000BF324B54
:1002D0001B6803F40033002BF9D051E02E4B1B6850
:1002E00003F08073002B4DD12B4B1B682A4A43F03F
:1002F0008073136000BF284B1B6803F00073002B52
:10030000F9D03FE0244B1B6803F08063002B3BD106
:10031000214B1B68204A43F08063136000BF1E4BD3
:100320001B6803F00063002BF9D02DE01A4B5B6FC4
:1003300003F00103002B29D1174B5B6F164A43F0E2
:100340000103536700BF144B5B6F03F00203002BE4
:10035000F9D01BE0104B1B6F03F00103002B17D1EA
:100360000D4B1B6F0C4A43F00103136700BF0A4B90
:100370001B6F03F00203002BF9D009E000BF08E077
:1003800000BF06E000BF04E000BF02E000BF00E0E5
:1003900000BF00BF02B070470038024082B0034681
:1003A0008DF807309DF80730052B39D801A252F897
:1003B00023F000BFCD030008DB030008E9030008B9
:1003C000F70300080504000813040008164B1B6817
:1003D000154A23F00103136022E0134B1B68124AF5
:1003E00023F4502313601BE00F4B1B680E4A23F0CD
:1003F0008073136014E00C4B1B680B4A23F080637E
:1004000013600DE0084B5B6F074A23F0010353674D
:1004100006E0054B1B6F044A23F00103136700BF7E
:1004200000BF02B0704700BF0038024082B00346F0
:100430008DF807300C4B9B6823F003029DF80730C2
:1004400003F00303084913438B6000BF064B9B680E
:100450009B0803F003029DF807309A42F6D100BFD3
:1004600000BF02B0704700BF0038024000B585B041
:100470000190019B072B08D8019A1346DB009B1AB9
:100480009B00704A1344039301E06F4B0393039B5B
:100490001B78012B0FD10120FFF7E0FE0120FFF7B1
:1004A000C5FF0220FFF77AFF0020FFF777FF674BB9
:1004B00001221A609DE0039B1B78022B40F08D8087
:1004C000634B1B6C624A43F080531364039B5B785D
:1004D000012B0CD10120FFF7C1FE5C4B01221A60F9
:1004E0005B4B5B685A4A43F4800353600BE0002087
:1004F000FFF7B4FE554B00221A60554B5B68544A17
:1005000023F480035360534B1B6823F04053039A3A
:10051000D27A120711464F4A0B4313604C4B9B682B
:1005200023F47C4323F0F003039A127A1201D2B22F
:100530001A43039B5B7A9B0203F4E0531A43039B29
:100540009B7A5B039BB2424913438B60404B5A68D2
:10055000414B1340039A127902F03F021A43039B66
:100560005B889B01194647F6C0730B401A43039BF7
:100570005B795B08DBB2013B1B0403F440331A4395
:10058000039B9B791B0603F07C53314913434B605B
:100590000220FFF763FE314B1B6823F00F02039B21
:1005A000DB6803F00F0313432C4A43F4E06313604A
:1005B0000220FFF73BFF039B5B78012B09D1244B03
:1005C0001B6803F00103002B03D00020FFF7E6FEB9
:1005D0000FE00120FFF7E2FE0BE00020FFF73EFEF8
:1005E0000020FFF723FF0220FFF7D8FE0120FFF7CE
:1005F000D5FE039B1B69154A5360039B5B69134A35
:100600009360039B5B7A002B02D1039B5B6902E042
:10061000039B5B695B000D4AD360039B9B690B4A9C
:100620001361039B9B7A002B02D1039B9B6902E021
:10063000039B9B695B00054A536100BF05B05DF8F1
:1006400004FB00BF0000002070000020C00A002052
:1006500000380240007000400080FCF0003C024086
:1006600000B583B001900320FFF798FE019B9B68C3
:100670001B0703F0E042019B5B68990147F6C073DA
:100680000B4042EA0301019B1B6803F03F02104B41
:100690001B680A43C3F884200320FFF7DFFD0D4BDE
:1006A0001B68002B01D00C4A00E00C4A019B1B6820
:1006B000B2FBF3F3019A526803FB02F2019B9B68C1
:1006C000B2FBF3F3034A936100BF03B05DF804FB90
:1006D000048E0008C00A002000127A000024F400F2
:1006E00008B5184BD3F88830164A43F47003C2F8A3
:1006F0008830154B1B68144A43F001031360124BFA
:1007000000229A60104B1B680F4A23F0847323F475
:10071000803313600C4B0D4A5A600B4B1B680A4A1E
:1007200023F480231360084B0022DA600220FFF7D5
:100730009DFE044B4FF000629A6000F009F800BF84
:1007400008BD00BF00ED00E000380240103000247A
:1007500086B0002304930023059302230393002310
:10076000029302230193334B9B6803F00C03049321
:10077000049B082B11D0049B082B44D8049B002B0E
:1007800003D0049B042B04D03DE02B4B2B4A1A6072
:100790003DE0294B2A4A1A6039E0264B5B689B0DE5
:1007A00003F001030293234B5B6803F03F030193C3
:1007B000029B002B0CD0224A019BB2FBF3F31D4A93
:1007C00052689209C2F3080202FB03F305930BE09F
:1007D0001A4A019BB2FBF3F3164A52689209C2F31C
:1007E000080202FB03F30593124B5B681B0C03F03A
:1007F000030301335B000393059A039BB2FBF3F3FE
:100800000D4A136003E00C4B0C4A1A6000BF094B01
:100810009B681B0903F00F030A4AD35C0493064B41
:100820001A68049B22FA03F3034A136000BF06B060
:10083000704700BF00380240A80000200024F400E8
:1008400000127A005C8E000882B0064B0193064BC2
:100850000093019B009A1A60009B01221A6000BF5E
:1008600002B07047EC6F0020E871002086B0019064
:10087000019B002B49D0019B013B9B0801339B004E
:100880000193244B05933DE0059B1B6803F0010396
:10089000002B32D1059B1B6823F001031A46059BF0
:1008A000D31A043B0493049A019B9A4204D0019BFF
:1008B0000433049A9A4209D1059B1B6843F0010353
:1008C0001A46059B1A60059B04331FE0019B083301
:1008D000049A9A4211D3019B0433059A134403935B
:1008E000059B1A68039B1A60039B43F001031A4699
:1008F000059B1A60059B043308E0059B1B6823F0E9
:1009000001030593059B002BBED10023184606B0BA
:10091000704700BFEC6F002086B00190294B059313
:1009200000230493019B002B48D013E0059B043364
:10093000019A9A4207D1059B1B6823F001031A46CE
:10094000059B1A6009E0059B0493059B1B6823F037
:1009500001030593059B002BE8D1059B002B2DD0AF
:10096000059B1B6803F00103002B17D1059B1B6837
:1009700023F001031B6803F00103002B0ED1059B3C
:100980001B6823F001030393059B1B6823F00103FD
:100990001A68059B1A60039B0B4A1A60049B002B84
:1009A0000CD0049B1B6803F00103002B06D1059BB0
:1009B0001A68049B1A60059B044A1A6000BF06B0BF
:1009C000704700BFEC6F0020FFCCCCCCBBCCCCCCB4
:1009D00082B0034600918DF807309DF90730002B57
:1009E0000ADB009BDAB20C499DF907301201D2B242
:1009F0000B4483F800230BE0009BDAB207499DF813
:100A0000073003F00F03043B1201D2B20B441A76F5
:100A100000BF02B0704700BF00E100E000ED00E061
:100A200008B5084B1B680133064A1360064B1B6868
:100A30001B68064B1B68002B02D0044B1B689847B1
:100A400000BF08BDE00A0020508D0008DC0A00202D
:100A500000B585B001900091234B5B68234AA2FB4F
:100A600003239A09019B02FB03F30393039BB3F156
:100A7000807F09D81E4B1B68039A013A5A601C4BB1
:100A80001B6804221A601AE0174B5B68174AA2FB26
:100A900003235A0A019B02FB03F30393039BB3F165
:100AA000807F09D8124B1B68039A013A5A60104B99
:100AB0001B6800221A6002E04FF0FF3310E00D4A7D
:100AC000009B136000214FF0FF30FFF781FF084BC0
:100AD0001B681A68064B1B6842F003021A60002369
:100AE000184605B05DF804FBC00A0020D34D621023
:100AF000508D0008DC0A0020064B1B6800229A601B
:100B0000044B1B681A68034B1B6842F001021A6011
:100B100000BF7047508D0008044B1B681A68034BD8
:100B20001B6822F001021A6000BF7047508D000858
:100B3000014B1B6818467047E00A002084B0019002
:100B4000254B5B68254AA2FB03239A09019B02FB04
:100B500003F30393039BB3F1807F09D8204B1B68F9
:100B6000039A013A5A601E4B1B6804221A601AE06D
:100B7000194B5B68194AA2FB03235A0A019B02FB2B
:100B800003F30393039BB3F1807F09D8144B1B68D5
:100B9000039A013A5A60124B1B6800221A6002E065
:100BA0004FF0FF3314E00E4B1B6800229A600C4B91
:100BB0001B681A680A4B1B6842F001021A6000BFEA
:100BC000074B1B681B6803F48033002BF8D000230D
:100BD000184604B0704700BFC00A0020D34D621011
:100BE000508D000882B003468DF807309DF907301C
:100BF000002B0CDB9DF8073003F01F0205499DF91F
:100C000007305B09012000FA02F241F8232000BFFF
:100C100002B0704700E100E082B0034600918DF819
:100C200007309DF90730002B0ADB009BDAB20C4934
:100C30009DF907301201D2B20B4483F800230BE078
:100C4000009BDAB207499DF8073003F00F03043B1D
:100C50001201D2B20B441A7600BF02B0704700BF37
:100C600000E100E000ED00E008B5064B1B68002B3A
:100C700002D0044B1B689847034B1B6801225A6142
:100C800000BF08BDE40A0020D48D000808B5064B5B
:100C90005B68002B02D0044B5B689847034B1B68D2
:100CA00002225A6100BF08BDE40A0020D48D00086A
:100CB00008B5064B9B68002B02D0044B9B689847F5
:100CC000034B1B6804225A6100BF08BDE40A0020E0
:100CD000D48D000808B5064BDB68002B02D0044B0E
:100CE000DB689847034B1B6808225A6100BF08BDA8
:100CF000E40A0020D48D000808B5064B1B69002BC0
:100D000002D0044B1B699847034B1B6810225A61A1
:100D100000BF08BDE40A0020D48D000808B5314B9F
:100D20001B685B6903F02003002B0BD02E4B5B6923
:100D3000002B02D02C4B5B6998472A4B1B68202262
:100D40005A614CE0274B1B685B6903F04003002BA2
:100D50000BD0254B9B69002B02D0234B9B699847F6
:100D6000204B1B6840225A6139E01E4B1B685B69AF
:100D700003F08003002B0BD01B4BDB69002B02D050
:100D8000194BDB699847174B1B6880225A6126E094
:100D9000144B1B685B6903F48073002B0CD0124B5F
:100DA0001B6A002B02D0104B1B6A98470D4B1B6827
:100DB0004FF480725A6112E00A4B1B685B6903F4BE
:100DC0000073002B0BD0084B5B6A002B02D0064B44
:100DD0005B6A9847034B1B684FF400725A6100BF6F
:100DE00008BD00BFD48D0008E40A002008B53C4BC4
:100DF0001B685B6903F48063002B0CD0394B9B6A42
:100E0000002B02D0374B9B6A9847354B1B684FF439
:100E100080625A6162E0324B1B685B6903F40063D5
:100E2000002B0CD02F4BDB6A002B02D02D4BDB6A42
:100E300098472B4B1B684FF400625A614EE0284BD9
:100E40001B685B6903F48053002B0CD0254B1B6B94
:100E5000002B02D0234B1B6B9847214B1B684FF490
:100E600080525A613AE01E4B1B685B6903F40053E1
:100E7000002B0CD01B4B5B6B002B02D0194B5B6B18
:100E80009847174B1B684FF400525A6126E0144BE9
:100E90001B685B6903F48043002B0CD0114B9B6BE8
:100EA000002B02D00F4B9B6B98470D4B1B684FF4E8
:100EB00080425A6112E00A4B1B685B6903F40043ED
:100EC000002B0BD0074BDB6B002B02D0054BDB6BF1
:100ED0009847034B1B684FF400425A6100BF08BD9E
:100EE000D48D0008E40A002000B597B00390019269
:100EF00000930B46ADF80A30A04B1B68039A9A4248
:100F000008D19F4B1B681A6B9D4B1B6842F0010276
:100F10001A6344E09B4B1B68039A9A4208D1984B92
:100F20001B681A6B964B1B6842F002021A6336E08C
:100F3000954B1B68039A9A4208D1914B1B681A6B18
:100F40008F4B1B6842F004021A6328E08F4B1B682A
:100F5000039A9A4208D18A4B1B681A6B884B1B680C
:100F600042F008021A631AE0894B1B68039A9A42FE
:100F700008D1834B1B681A6B814B1B6842F010022F
:100F80001A630CE0834B1B68039A9A4207D17C4B8F
:100F90001B681A6B7A4B1B6842F080021A63019B34
:100FA00003F00F030993019B1B0903F0030308934C
:100FB000019B9B0903F001030793019B1B0A03F0AC
:100FC00003030693019B03F440330593039B1B68C3
:100FD0001593039BDB681493039B5B681393039B3C
:100FE0009B6812930123ADF84630002310934EE026
:100FF000BDF80A20BDF8463013409BB2002B3ED00E
:10100000109B5B00032202FA03F3DB431A46159B95
:101010001A40059B190C109B5B0001FA03F3134364
:101020001593109B5B00032202FA03F3DB431A467D
:10103000149B1A40109B5B00069901FA03F31343BB
:1010400014930122109B02FA03F3DB431A46139B0D
:101050001A400799109B01FA03F313431393109B53
:101060005B00032202FA03F3DB431A46129B1A4089
:10107000109B5B00089901FA03F313431293BDF828
:1010800046305B00ADF84630109B01331093109B47
:101090000F2BADDD039B159A1A60039B149ADA603F
:1010A000039B139A5A60039B129A9A60059BB3F5AF
:1010B000003F5ED1039B1B6A0F93039B5B6A0E93F9
:1010C0000123ADF8463000230D931FE0BDF80A2040
:1010D000BDF8463013409BB2002B0FD00D9B9B00F8
:1010E0000F2202FA03F3DB431A460F9B1A400D9BB3
:1010F0009B00099901FA03F313430F93BDF846309F
:101100005B00ADF846300D9B01330D930D9B072B13
:10111000DCDD039B0F9A1A624FF48073ADF8463002
:1011200000230C931FE0BDF80A20BDF846301340A1
:101130009BB2002B0FD00C9B9B000F2202FA03F3F3
:10114000DB431A460E9B1A400C9B9B00099901FA3F
:1011500003F313430E93BDF846305B00ADF8463001
:101160000C9B01330C930C9B072BDCDD039B0E9A2D
:101170005A62009B002B0FD100233BE1E88D000851
:10118000048E0008EC8D0008F08D0008F48D000836
:10119000F88D0008FC8D0008059B002B02D04FF055
:1011A000FF3327E100230B93944B1B68039A9A4269
:1011B00002D100230B9326E0914B1B68039A9A42BD
:1011C00002D101230B931EE08E4B1B68039A9A42B7
:1011D00002D102230B9316E08B4B1B68039A9A42B1
:1011E00002D103230B930EE0884B1B68039A9A42AB
:1011F00002D104230B9306E0854B1B68039A9A42A5
:1012000001D107230B930123ADF8463000230A9345
:10121000EBE0BDF80A20BDF8463013409BB2002B2E
:1012200000F0DA807B4B1B685A6C7A4B1B6842F4E7
:1012300080425A64784B1B680A9A9210023253F823
:1012400022300A9A920002F00C020F2101FA02F2F7
:10125000D24303EA02000A9B9B0003F00C030B9AA3
:1012600002FA03F16C4B1B680A9A92100143023296
:1012700043F82210694B1B681968BDF84620674B7C
:101280001B680A431A60654B1B685A68BDF84630F4
:10129000DB431946614B1B680A405A60019B03F40B
:1012A0008053002B09D05D4B1B689968BDF8462020
:1012B0005A4B1B680A439A600AE0584B1B689A68AD
:1012C000BDF84630DB431946544B1B680A409A6010
:1012D000019B03F40053002B09D0504B1B68D968C5
:1012E000BDF846204D4B1B680A43DA600AE04B4BC1
:1012F0001B68DA68BDF84630DB431946474B1B686C
:101300000A40DA6046490A9B009A41F82320434B81
:101310001B68BDF846205A610A9B0F2B5AD801A2C0
:1013200052F823F0651300087513000885130008B0
:1013300095130008A5130008B5130008B51300089D
:10134000B5130008B5130008B5130008C51300084D
:10135000C5130008C5130008C5130008C51300080D
:10136000C513000808210620FFF756FC0620FFF7EA
:1013700039FC32E008210720FFF74EFC0720FFF779
:1013800031FC2AE008210820FFF746FC0820FFF77F
:1013900029FC22E008210920FFF73EFC0920FFF785
:1013A00021FC1AE008210A20FFF736FC0A20FFF78B
:1013B00019FC12E008211720FFF72EFC1720FFF779
:1013C00011FC0AE008212820FFF726FC2820FFF75F
:1013D00009FC02E000230DE000BFBDF846305B00D1
:1013E000ADF846300A9B01330A930A9B0F2B7FF717
:1013F00010AF0023184617B05DF804FBE88D000815
:10140000EC8D0008F08D0008F48D0008F88D0008C0
:10141000FC8D0008048E0008D08D0008D48D0008D3
:10142000E40A002082B001900B46ADF80230019B27
:101430001A69BDF802301340184602B0704782B0F6
:1014400001900B46ADF802301346ADF80030BDF800
:101450000220BDF8003013409BB21946BDF802309F
:10146000DA43BDF8003013401B0441EA0302019B3C
:101470009A6100BF02B0704782B001900B46ADF890
:1014800002301346ADF80030BDF80230DA43BDF843
:1014900000301A40BDF80210BDF800300B409BB27E
:1014A0001B041A43019B9A6100BF02B0704782B0CF
:1014B00001900B46ADF80230BDF80220019B9A6105
:1014C00000BF02B0704782B001900B46ADF8023009
:1014D000BDF802301A04019B9A6100BF02B0704748
:1014E00082B003468DF807309DF90730002B0CDBE6
:1014F0009DF8073003F01F0205499DF907305B098D
:10150000012000FA02F241F8232000BF02B0704728
:1015100000E100E082B0034600918DF807309DF9AC
:101520000730002B0ADB009BDAB20C499DF907302B
:101530001201D2B20B4483F800230BE0009BDAB215
:1015400007499DF8073003F00F03043B1201D2B2A4
:101550000B441A7600BF02B0704700BF00E100E004
:1015600000ED00E000B583B02B4B1B681B6803F057
:101570002003002B1DD0284B1B6810330193274BF1
:101580001B68002B0DD0254B1B68019A126802F4D2
:101590000022002A0CBF01220022D2B211460020F4
:1015A00098471D4B1B6820229A601D4B00221A6031
:1015B0002EE0194B1B681B6803F00103002B08D0B9
:1015C000154B1B6801229A60154B6FF002021A60DE
:1015D0001EE0114B1B681B6803F00403002B08D0AE
:1015E0000D4B1B6804229A600D4B6FF003021A60CA
:1015F0000EE0094B1B681B6803F00803002B07D0A3
:10160000054B1B6808229A60054B6FF004021A60B4
:1016100000BF03B05DF804FB0C8E0008240B002013
:10162000440B002000B583B02D4B1B681B6803F4EE
:101630000063002B1ED02A4B1B6828330193294BD3
:101640005B68002B0DD0274B5B68019A126802F48F
:101650000022002A0CBF01220022D2B21146012032
:1016600098471F4B1B684FF400629A601E4B002284
:101670005A6030E01A4B1B681B6803F04003002BD4
:1016800008D0174B1B6840229A60174B6FF002027C
:101690005A6020E0124B1B681B6803F48073002B18
:1016A00009D00F4B1B684FF480729A600E4B6FF09D
:1016B00003025A600FE00A4B1B681B6803F40073B7
:1016C000002B08D0064B1B684FF400729A60064B43
:1016D0006FF004025A6000BF03B05DF804FB00BF66
:1016E0000C8E0008240B0020440B002000B583B0B2
:1016F0002D4B1B681B6803F40013002B1ED02A4BD4
:101700001B6840330193294B9B68002B0DD0274B5E
:101710009B68019A126802F40022002A0CBF012281
:101720000022D2B21146022098471F4B1B684FF48B
:1017300000129A601E4B00229A6031E01A4B1B681F
:101740001B6803F48033002B09D0174B1B684FF440
:1017500080329A60164B6FF002029A6020E0124BC2
:101760001B681B6803F48023002B09D00E4B1B68F9
:101770004FF480229A600E4B6FF003029A600FE0E4
:10178000094B1B681B6803F40023002B08D0064B91
:101790001B684FF400229A60054B6FF004029A60B8
:1017A00000BF03B05DF804FB0C8E0008240B002082
:1017B000440B002000B583B02D4B1B681B6803F061
:1017C0000063002B1ED02A4B1B6858330193294B12
:1017D000DB68002B0DD0274BDB68019A126802F4FE
:1017E0000022002A0CBF01220022D2B2114603209F
:1017F00098471F4B1B684FF000629A601E4B0022F7
:10180000DA6031E01A4B1B681B6803F48003002B7D
:1018100009D0174B1B684FF480029A60164B6FF08B
:101820000202DA6020E0124B1B681B6803F0807331
:10183000002B09D00E4B1B684FF080729A600E4B44
:101840006FF00302DA600FE0094B1B681B6803F0BE
:101850000073002B08D0064B1B684FF000729A6093
:10186000054B6FF00402DA6000BF03B05DF804FBC3
:101870000C8E0008240B0020440B002000B583B020
:101880002B4B1B685B6803F02003002B1DD0284BFB
:101890001B6870330193274B1B69002B0DD0254B20
:1018A0001B69019A126802F40022002A0CBF01226F
:1018B0000022D2B21146042098471D4B1B682022FB
:1018C000DA601D4B00221A612EE0194B1B685B6821
:1018D00003F00103002B08D0154B1B680122DA60CE
:1018E000154B6FF002021A611EE0114B1B685B681A
:1018F00003F00403002B08D00D4B1B680422DA60B0
:101900000D4B6FF003021A610EE0094B1B685B6818
:1019100003F00803002B07D0054B1B680822DA6090
:10192000054B6FF004021A6100BF03B05DF804FBC1
:101930000C8E0008240B0020440B002000B583B05F
:101940002D4B1B685B6803F40063002B1ED02A4BF1
:101950001B6888330193294B5B69002B0DD0274B03
:101960005B69019A126802F40022002A0CBF01226E
:101970000022D2B21146052098471F4B1B684FF436
:101980000062DA601E4B00225A6130E01A4B1B687D
:101990005B6803F04003002B08D0174B1B68402204
:1019A000DA60174B6FF002025A6120E0124B1B689D
:1019B0005B6803F48073002B09D00F4B1B684FF456
:1019C0008072DA600E4B6FF003025A610FE00A4B2F
:1019D0001B685B6803F40073002B08D0064B1B6880
:1019E0004FF40072DA60064B6FF004025A6100BFD8
:1019F00003B05DF804FB00BF0C8E0008240B002030
:101A0000440B002000B583B02D4B1B685B6803F4CA
:101A10000013002B1ED02A4B1B68A0330193294BC7
:101A20009B69002B0DD0274B9B69019A126802F429
:101A30000022002A0CBF01220022D2B21146062049
:101A400098471F4B1B684FF40012DA601E4B0022B0
:101A50009A6131E01A4B1B685B6803F48033002BFA
:101A600009D0174B1B684FF48032DA60164B6FF0C9
:101A700002029A6120E0124B1B685B6803F480232A
:101A8000002B09D00E4B1B684FF48022DA600E4BFE
:101A90006FF003029A610FE0094B1B685B6803F467
:101AA0000023002B08D0064B1B684FF40022DA609D
:101AB000054B6FF004029A6100BF03B05DF804FBB0
:101AC0000C8E0008240B0020440B002000B583B0CE
:101AD0002D4B1B685B6803F00063002B1ED02A4B64
:101AE0001B68B8330193294BDB69002B0DD0274BC2
:101AF000DB69019A126802F40022002A0CBF01225D
:101B00000022D2B21146072098471F4B1B684FF0A6
:101B10000062DA601E4B0022DA6131E01A4B1B686A
:101B20005B6803F48003002B09D0174B1B684FF44C
:101B30008002DA60164B6FF00202DA6120E0124B8D
:101B40001B685B6803F08073002B09D00E4B1B6889
:101B50004FF08072DA600E4B6FF00302DA610FE033
:101B6000094B1B685B6803F00073002B08D0064B21
:101B70001B684FF00072DA60054B6FF00402DA6107
:101B800000BF03B05DF804FB0C8E0008240B00209E
:101B9000440B002000B583B02B4B1B681B6803F07F
:101BA0002003002B1DD0284B1B6810330193274BBB
:101BB0001B68002B0DD0254B1B68019A126802F49C
:101BC0000022002A0CBF01220022D2B211460020BE
:101BD00098471D4B1B6820229A601D4B00221A60FB
:101BE0002EE0194B1B681B6803F00103002B08D083
:101BF000154B1B6801229A60154B6FF002021A60A8
:101C00001EE0114B1B681B6803F00403002B08D077
:101C10000D4B1B6804229A600D4B6FF003021A6093
:101C20000EE0094B1B681B6803F00803002B07D06C
:101C3000054B1B6808229A60054B6FF004021A607E
:101C400000BF03B05DF804FB308E0008640B002079
:101C5000840B002000B583B02D4B1B681B6803F478
:101C60000063002B1ED02A4B1B6828330193294B9D
:101C70005B68002B0DD0274B5B68019A126802F459
:101C80000022002A0CBF01220022D2B211460120FC
:101C900098471F4B1B684FF400629A601E4B00224E
:101CA0005A6030E01A4B1B681B6803F04003002B9E
:101CB00008D0174B1B6840229A60174B6FF0020246
:101CC0005A6020E0124B1B681B6803F48073002BE2
:101CD00009D00F4B1B684FF480729A600E4B6FF067
:101CE00003025A600FE00A4B1B681B6803F4007381
:101CF000002B08D0064B1B684FF400729A60064B0D
:101D00006FF004025A6000BF03B05DF804FB00BF2F
:101D1000308E0008640B0020840B002000B583B0D7
:101D20002D4B1B681B6803F40013002B1ED02A4B9D
:101D30001B6840330193294B9B68002B0DD0274B28
:101D40009B68019A126802F40022002A0CBF01224B
:101D50000022D2B21146022098471F4B1B684FF455
:101D600000129A601E4B00229A6031E01A4B1B68E9
:101D70001B6803F48033002B09D0174B1B684FF40A
:101D800080329A60164B6FF002029A6020E0124B8C
:101D90001B681B6803F48023002B09D00E4B1B68C3
:101DA0004FF480229A600E4B6FF003029A600FE0AE
:101DB000094B1B681B6803F40023002B08D0064B5B
:101DC0001B684FF400229A60054B6FF004029A6082
:101DD00000BF03B05DF804FB308E0008640B0020E8
:101DE000840B002000B583B02D4B1B681B6803F0EB
:101DF0000063002B1ED02A4B1B6858330193294BDC
:101E0000DB68002B0DD0274BDB68019A126802F4C7
:101E10000022002A0CBF01220022D2B21146032068
:101E200098471F4B1B684FF000629A601E4B0022C0
:101E3000DA6031E01A4B1B681B6803F48003002B47
:101E400009D0174B1B684FF480029A60164B6FF055
:101E50000202DA6020E0124B1B681B6803F08073FB
:101E6000002B09D00E4B1B684FF080729A600E4B0E
:101E70006FF00302DA600FE0094B1B681B6803F088
:101E80000073002B08D0064B1B684FF000729A605D
:101E9000054B6FF00402DA6000BF03B05DF804FB8D
:101EA000308E0008640B0020840B002000B583B046
:101EB0002B4B1B685B6803F02003002B1DD0284BC5
:101EC0001B6870330193274B1B69002B0DD0254BEA
:101ED0001B69019A126802F40022002A0CBF012239
:101EE0000022D2B21146042098471D4B1B682022C5
:101EF000DA601D4B00221A612EE0194B1B685B68EB
:101F000003F00103002B08D0154B1B680122DA6097
:101F1000154B6FF002021A611EE0114B1B685B68E3
:101F200003F00403002B08D00D4B1B680422DA6079
:101F30000D4B6FF003021A610EE0094B1B685B68E2
:101F400003F00803002B07D0054B1B680822DA605A
:101F5000054B6FF004021A6100BF03B05DF804FB8B
:101F6000308E0008640B0020840B002000B583B085
:101F70002D4B1B685B6803F40063002B1ED02A4BBB
:101F80001B6888330193294B5B69002B0DD0274BCD
:101F90005B69019A126802F40022002A0CBF012238
:101FA0000022D2B21146052098471F4B1B684FF400
:101FB0000062DA601E4B00225A6130E01A4B1B6847
:101FC0005B6803F04003002B08D0174B1B684022CE
:101FD000DA60174B6FF002025A6120E0124B1B6867
:101FE0005B6803F48073002B09D00F4B1B684FF420
:101FF0008072DA600E4B6FF003025A610FE00A4BF9
:102000001B685B6803F40073002B08D0064B1B6849
:102010004FF40072DA60064B6FF004025A6100BFA1
:1020200003B05DF804FB00BF308E0008640B002095
:10203000840B002000B583B02D4B1B685B6803F454
:102040000013002B1ED02A4B1B68A0330193294B91
:102050009B69002B0DD0274B9B69019A126802F4F3
:102060000022002A0CBF01220022D2B21146062013
:1020700098471F4B1B684FF40012DA601E4B00227A
:102080009A6131E01A4B1B685B6803F48033002BC4
:1020900009D0174B1B684FF48032DA60164B6FF093
:1020A00002029A6120E0124B1B685B6803F48023F4
:1020B000002B09D00E4B1B684FF48022DA600E4BC8
:1020C0006FF003029A610FE0094B1B685B6803F431
:1020D0000023002B08D0064B1B684FF40022DA6067
:1020E000054B6FF004029A6100BF03B05DF804FB7A
:1020F000308E0008640B0020840B002000B583B0F4
:102100002D4B1B685B6803F00063002B1ED02A4B2D
:102110001B68B8330193294BDB69002B0DD0274B8B
:10212000DB69019A126802F40022002A0CBF012226
:102130000022D2B21146072098471F4B1B684FF070
:102140000062DA601E4B0022DA6131E01A4B1B6834
:102150005B6803F48003002B09D0174B1B684FF416
:102160008002DA60164B6FF00202DA6120E0124B57
:102170001B685B6803F08073002B09D00E4B1B6853
:102180004FF08072DA600E4B6FF00302DA610FE0FD
:10219000094B1B685B6803F00073002B08D0064BEB
:1021A0001B684FF00072DA60054B6FF00402DA61D1
:1021B00000BF03B05DF804FB308E0008640B002004
:1021C000840B002000B589B0039002910192009326
:1021D0004FF0FF330493A84B1B68039A9A425DD1DA
:1021E000029B072B01D90023AEE1A44B1B681A6B9D
:1021F000A24B1B6842F400121A63029B072B43D8C0
:1022000001A252F823F000BF29220008352200085D
:10221000412200084D2200085922000865220008CA
:10222000712200087D2200080B238DF81B30022349
:10223000059329E00C238DF81B300223059323E03E
:102240000D238DF81B30022305931DE00E238DF81E
:102250001B300623059317E00F238DF81B30022354
:10226000059311E010238DF81B30022305930BE03A
:1022700011238DF81B300223059305E02F238DF8E1
:102280001B300223059300BF029A13465B001344E0
:10229000DB001033039A1344079363E0784B1B6809
:1022A000039A9A425CD1029B072B01D900234BE190
:1022B000724B1B681A6B714B1B6842F480021A63E5
:1022C000029B072B42D801A252F823F0ED2200080E
:1022D000F922000805230008112300081D23000827
:1022E00029230008352300084123000838238DF8EE
:1022F0001B300223059329E039238DF81B3002237C
:10230000059323E03A238DF81B30022305931DE04B
:102310003B238DF81B300223059317E03C238DF8F7
:102320001B300223059311E044238DF81B30022358
:1023300005930BE045238DF81B300223059305E040
:1023400046238DF81B300223059300BF029A1346E3
:102350005B001344DB001033039A1344079301E03E
:102360000023F1E0029BDB0003F01001029B03F06D
:10237000010213465B0013445B000B443D2202FA4A
:1023800003F1029B9A08039B023243F822100A9B36
:1023900023F00702079B1A600A9B03F00702079BC2
:1023A0005A61019B1B78072B22D1079B1A68019B5E
:1023B0001B699B0023F4006323F00303019909695F
:1023C000490001F480610B431A43079B1A60019B8B
:1023D0005B681A46079BDA60019B1B6903F4803334
:1023E000002B1FD0019B9B681A46079B1A6119E0BE
:1023F00000230493079B1B68019AD26852061A4374
:10240000079B1A60079B1A68019B1B6923F48033A2
:1024100023F040031A43079B1A60019B5B681A462E
:10242000079B9A60009B1B78072B44D1079B1A6877
:10243000009B1B699B0023F4006323F003030099B6
:102440000969490001F480610B431A43079B1A6034
:10245000049B002B16D1009B5B681A46079BDA6031
:10246000009B1B6903F48033002B43D0009B9B68C7
:102470001A46079B1A613DE00C8E0008048E000886
:10248000308E0008324B1B68039A9A4207D1314ABA
:10249000029B6FF0050142F82310002354E0079BD4
:1024A0001B6843F08002079B1A60009B5B681A461A
:1024B000079B9A601EE0049B002B01D1002343E0A0
:1024C000079B1B68009AD2685206134343F04002F0
:1024D000079B1A60079B1A68009B1B6923F48033D3
:1024E00023F040031A43079B1A60009B5B681A465F
:1024F000079B9A600B9B002B25D0154B1B68039AFA
:102500009A4205D11449029B0B9A41F8232009E015
:10251000124B1B68039A9A4204D11149029B0B9AF1
:1025200041F82320079B1B6843F01002079B1A60A9
:102530009DF91B3005991846FEF7ECFF9DF91B30FD
:102540001846FEF7CDFF079B184609B05DF804FB5F
:102550000C8E0008440B0020240B0020308E000855
:10256000640B002082B001900B46ADF80230019B55
:10257000002B02D16FF001031CE0BDF80230002BEC
:102580000DD1019B1B689B0903F00303022B06D0AE
:10259000019B1B6843F02002019B1A6003E0BDF819
:1025A0000220019B5A60019B1B6843F00102019BC2
:1025B0001A600023184602B0704782B00190019B58
:1025C000002B02D16FF0010306E0019B1B6823F092
:1025D0000102019B1A600023184602B0704782B0C6
:1025E0000190019B1B6803F00103002B0CBF01232A
:1025F0000023DBB2184602B0704782B00190009110
:10260000009B072B02D96FF0010315E00C4B1B68F0
:10261000019A9A4204D10B4A009B52F823300BE0F6
:10262000094B1B68019A9A4204D1084A009B52F850
:10263000233001E04FF0FF33184602B0704700BF6F
:102640000C8E0008440B0020308E0008840B002004
:1026500082B003468DF807309DF90730002B0CDB64
:102660009DF8073003F01F0205499DF907305B090B
:10267000012000FA02F241F8232000BF02B07047A7
:1026800000E100E082B0034600918DF807309DF92B
:102690000730002B0ADB009BDAB20C499DF90730AA
:1026A0001201D2B20B4483F800230BE0009BDAB294
:1026B00007499DF8073003F00F03043B1201D2B223
:1026C0000B441A7600BF02B0704700BF00E100E083
:1026D00000ED00E008B5084B1B68002B02D0064B4C
:1026E0001B689847054B1B681A69044B1B6822F04E
:1026F0001F021A6100BF08BDA40B0020708D0008E6
:1027000008B5084B1B68002B02D0064B1B68984786
:10271000054B1B681A69044B1B6822F01F021A61E3
:1027200000BF08BDA80B0020748D000808B5084B39
:102730001B68002B02D0064B1B689847054B1B6893
:102740001A69044B1B6822F01F021A6100BF08BD02
:10275000AC0B0020788D000808B5084B1B68002BD7
:1027600002D0064B1B689847054B1B681A69044B3F
:102770001B6822F01F021A6100BF08BDB00B0020C9
:102780007C8D000800B589B0039002910192584BEE
:102790001B68039A9A4213D1564A019B13601C236B
:1027A0008DF81F3004230693534BDB680593534B7E
:1027B0001B681A6C514B1B6842F001021A644DE011
:1027C0004F4B1B68039A9A4213D14E4A019B1360E8
:1027D0001D238DF81F3004230693474BDB680593B8
:1027E000464B1B681A6C454B1B6842F002021A6488
:1027F00034E0454B1B68039A9A4213D1434A019B2C
:1028000013601E238DF81F30042306933A4BDB68B8
:1028100005933A4B1B681A6C384B1B6842F0040254
:102820001A641BE03A4B1B68039A9A4213D1394A47
:10283000019B136032238DF81F30042306932E4B27
:10284000DB6805932D4B1B681A6C2C4B1B6842F000
:1028500008021A6402E04FF0FF3344E0039B1B6957
:1028600023F01F02039B1A61039B88221A60059BB9
:10287000294AA2FB03235B0B5A1E039B9A62029A0E
:1028800013469B0013445B005A1E039BDA62019BB4
:10289000002B17D09DF91F3006991846FFF7F2FE5E
:1028A0009DF91F301846FFF7D3FE039B0122DA6023
:1028B000039B01225A61039B1B6843F00102039BA7
:1028C0001A600FE0039B01225A61039B1B6843F0CF
:1028D0000102039B1A6000BF039B1B6803F0010306
:1028E000002BF9D10023184609B05DF804FB00BFA6
:1028F000708D0008A40B0020C00A0020048E000880
:10290000748D0008A80B0020788D0008AC0B002007
:102910007C8D0008B00B00205917B7D100B589B0E5
:10292000039002910192564B1B68039A9A4213D16D
:10293000544A019B13601C238DF81F300423069317
:10294000514BDB680593514B1B681A6C4F4B1B684E
:1029500042F001021A644DE04D4B1B68039A9A4203
:1029600013D14C4A019B13601D238DF81F300423A3
:102970000693454BDB680593444B1B681A6C434B2D
:102980001B6842F002021A6434E0434B1B68039A4E
:102990009A4213D1414A019B13601E238DF81F30C8
:1029A00004230693384BDB680593384B1B681A6C7D
:1029B000364B1B6842F004021A641BE0384B1B685C
:1029C000039A9A4213D1374A019B136032238DF840
:1029D0001F30042306932C4BDB6805932B4B1B689D
:1029E0001A6C2A4B1B6842F008021A6402E04FF08E
:1029F000FF3340E0039B1B6923F01F02039B1A6116
:102A0000039B88221A60059B274AA2FB03239B0C89
:102A10005A1E039B9A62029B5A1E039BDA62019B19
:102A2000002B17D09DF91F3006991846FFF72AFE94
:102A30009DF91F301846FFF70BFE039B0122DA6059
:102A4000039B01225A61039B1B6843F00102039B15
:102A50001A600FE0039B01225A61039B1B6843F03D
:102A60000102039B1A6000BF039B1B6803F0010374
:102A7000002BF9D10023184609B05DF804FB00BF14
:102A8000708D0008A40B0020C00A0020048E0008EE
:102A9000748D0008A80B0020788D0008AC0B002076
:102AA0007C8D0008B00B002083DE1B4300B589B08D
:102AB000039002910192514B1B68039A9A4216D1DE
:102AC000019B002B02D04E4A019B13601C238DF802
:102AD0001F30042306934B4BDB6805934A4B1B685E
:102AE0001A6C494B1B6842F001021A6456E0474BCE
:102AF0001B68039A9A4216D1019B002B02D0444ACC
:102B0000019B13601D238DF81F30042306933D4B5A
:102B1000DB6805933C4B1B681A6C3B4B1B6842F00F
:102B200002021A643AE03B4B1B68039A9A4216D1A0
:102B3000019B002B02D0384A019B13601E238DF8A5
:102B40001F30042306932F4BDB6805932E4B1B6825
:102B50001A6C2D4B1B6842F004021A641EE02F4BC6
:102B60001B68039A9A4216D1019B002B02D02C4A73
:102B7000019B136032238DF81F3004230693214BF1
:102B8000DB680593204B1B681A6C1F4B1B6842F0D7
:102B900008021A6402E04FF0FF332AE0039B1B692E
:102BA00023F01F02039B1A61039B80221A60059B7E
:102BB0001C4AA2FB03235B0B5A1E039B9A62029AD8
:102BC00013469B0013445B005A1E039BDA62019B71
:102BD000002B0DD09DF91F3006991846FFF752FDC6
:102BE0009DF91F301846FFF733FD039B0122DA6081
:102BF0000023184609B05DF804FB00BF708D000883
:102C0000A40B0020C00A0020048E0008748D000868
:102C1000A80B0020788D0008AC0B00207C8D0008EC
:102C2000B00B00205917B7D182B001900091009AE3
:102C300013469B0013445B005A1E019BDA62019B02
:102C400001225A610023184602B0704784B00190F7
:102C500000912C4B1B68019A9A420BD12A4BDB68DE
:102C600003932A4B1B681A6C284B1B6842F0010225
:102C70001A6435E0264B1B68019A9A420BD1224B0D
:102C8000DB680393214B1B681A6C204B1B6842F0D6
:102C900002021A6424E01F4B1B68019A9A420BD16E
:102CA000194BDB680393194B1B681A6C174B1B6895
:102CB00042F004021A6413E0174B1B68019A9A420F
:102CC0000BD1114BDB680393104B1B681A6C0F4B35
:102CD0001B6842F008021A6402E04FF0FF330EE076
:102CE000019B80221A60039B0C4AA2FB03239B0CCE
:102CF000009A02FB03F35A1E019B9A6200231846B6
:102D000004B07047708D0008C00A0020048E0008CF
:102D1000748D0008788D00087C8D000883DE1B43CD
:102D200082B00190019B01225A61019B1B6843F014
:102D30000102019B1A6000BF02B0704782B001908F
:102D4000019B1B6823F00102019B1A6000BF02B0C7
:102D5000704782B00190019B5B6A184602B07047D1
:102D600000B589B00390029101924B4B1B68039A06
:102D70009A4213D1494A019B13601C238DF81F30DE
:102D800004230693464BDB680593464B1B681A6C7D
:102D9000444B1B6842F001021A644DE0424B1B6831
:102DA000039A9A4213D1414A019B13601D238DF867
:102DB0001F30042306933A4BDB680593394B1B689D
:102DC0001A6C384B1B6842F002021A6434E0384B2C
:102DD0001B68039A9A4213D1364A019B13601E2343
:102DE0008DF81F30042306932D4BDB6805932D4B84
:102DF0001B681A6C2B4B1B6842F004021A641BE020
:102E00002D4B1B68039A9A4213D12C4A019B1360E5
:102E100032238DF81F3004230693214BDB68059382
:102E2000204B1B681A6C1F4B1B6842F008021A6487
:102E300002E04FF0FF332AE0039B1B6923F01F02DF
:102E4000039B1A61039B80221A60059B1C4AA2FB0C
:102E500003235B0B5A1E039B9A62029A13469B0044
:102E600013445B005A1E039BDA62019B002B0DD0BA
:102E70009DF91F3006991846FFF704FC9DF91F3095
:102E80001846FFF7E5FB039B0122DA600023184692
:102E900009B05DF804FB00BF708D0008A40B002092
:102EA000C00A0020048E0008748D0008A80B0020C2
:102EB000788D0008AC0B00207C8D0008B00B002042
:102EC0005917B7D184B00390029101920093029BED
:102ED000032B02D8019B642B01D900234EE0039BF6
:102EE000DB6A0133019A02FB03F3264AA2FB0323A8
:102EF0005A090399029B0C339B000B445A60029BB6
:102F00005A08039B063253F82230029AD20002F08C
:102F10000802FF2101FA02F2D2431340029AD200C2
:102F200002F00802682101FA02F21146029A5208E0
:102F30001943039B063243F82210009B002B11D04B
:102F4000039B1B6A029A92000F2101FA02F2D243FC
:102F50001340029A9200012101FA02F21A43039BE4
:102F60001A620AE0039B1B6A029A92000F2101FA7F
:102F700002F2D2431A40039B1A620123184604B09E
:102F8000704700BF1F85EB5182B001900091019BFB
:102F90001B6A009A92000F2101FA02F2D2431A40F2
:102FA000019B1A620123184602B0704784B0039057
:102FB00002910192029B032B02D8019B642B01D941
:102FC000002310E0039BDB6A0133019A02FB03F349
:102FD000064AA2FB03235A090399029B0C339B0068
:102FE0000B445A600123184604B070471F85EB510B
:102FF00082B003468DF807309DF90730002B0CDBBB
:103000009DF8073003F01F0205499DF907305B0961
:10301000012000FA02F241F8232000BF02B07047FD
:1030200000E100E082B0034600918DF807309DF981
:103030000730002B0ADB009BDAB20C499DF9073000
:103040001201D2B20B4483F800230BE0009BDAB2EA
:1030500007499DF8073003F00F03043B1201D2B279
:103060000B441A7600BF02B0704700BF00E100E0D9
:1030700000ED00E082B0514B1B681B680193019B7F
:1030800003F08003002B28D04D4B5A6A4C4B1B6A2F
:103090009A4222D04A4B5B6A494AD35CDAB2474B28
:1030A0001B685A60464B5B6A01335A4203F01F03A8
:1030B00002F01F0258BF5342414A5362404B5A6AC2
:1030C0003F4B1B6A9A4275D13C4B1B68DA683B4BFD
:1030D0001B6822F08002DA606CE0019B03F02003A1
:1030E000002B37D0019B03F00203002B2ED1019B54
:1030F00003F00403002B29D1314B9B6C01335A425E
:1031000003F01F0302F01F0258BF53422C4AD26C37
:10311000934217D0294B1B685A68294B9B6CD1B23C
:10312000274A13440A4683F82820254B9B6C013319
:103130005A4203F01F0302F01F0258BF5342204AB5
:10314000936437E01D4B1B685B6833E01B4B1B68C7
:103150005B682FE0019B03F04003002B0BD0174B63
:103160001B68DA68154B1B6822F04002DA60144BCA
:1031700001221A651EE0019B03F01003002B03D00F
:103180000E4B1B685B6815E0019B03F00803002BE6
:1031900003D00A4B1B685B680CE0019B03F0010342
:1031A000002B03D0054B1B685B6803E0034B1B68D7
:1031B0005B68FFE700BF02B0704700BF9C8D00084E
:1031C000B40B002082B001900C4B1B68019A9A420C
:1031D00001D100230EE00A4B1B68019A9A4201D1EB
:1031E000084B07E0084B1B68019A9A4201D1002363
:1031F00000E00023184602B0704700BFB48D0008FD
:103200009C8D0008B40B0020B88D000800B589B073
:10321000039002910192404B1B68039A9A4202D19B
:103220004FF0FF3374E03D4B1B68039A9A4265D11F
:103230003B4B1B681A6A3A4B1B6842F400321A6215
:10324000374B1B681A6A364B1B6822F400321A622D
:10325000334B1B681A6C324B1B6842F400321A6401
:10326000304B18680023304A0C21FDF73DFE2F4BF0
:10327000079326238DF81B30032305932C4B9B6863
:103280005A00029B1A44029B5B00B2FBF3F2039BC1
:103290009A60039B00229A61039B00225A61019B62
:1032A0001B091B0303F44052039B1A61019B1B0380
:1032B00003F48052019B03F4E063134343F400538F
:1032C00043F02C03039AD3600023079A5362079AB2
:1032D00013620023079AD364079A9364079B012221
:1032E0001A659DF91B3005991846FFF79BFE9DF95D
:1032F0001B301846FFF77CFE002309E00D4B1B68CE
:10330000039A9A4202D14FF0FF3301E04FF0FF33AE
:10331000184609B05DF804FBB48D00089C8D0008C8
:10332000048E0008E88D000807000200B40B00209E
:10333000C00A0020B88D000800B585B00190019842
:10334000FFF740FF039000BF039BDA6C039B9B6C6D
:103350009A42F9D0039BDB6C039A134493F828300C
:103360008DF80B30039BDB6C01335A4203F01F03D3
:1033700002F01F0258BF5342039AD3649DF80B30EA
:10338000184605B05DF804FB00B587B001900091C8
:103390000198FFF717FF0590FDF7CAFB04900AE0BC
:1033A000FDF7C6FB0246049BD21A009B9A4202D349
:1033B0004FF0FF331BE0059BDA6C059B9B6C9A4238
:1033C000EED0059BDB6C059A134493F828308DF8FA
:1033D0000F30059BDB6C01335A4203F01F0302F0F0
:1033E0001F0258BF5342059AD3649DF80F30184608
:1033F00007B05DF804FB00B585B00190009101981D
:10340000FFF7E0FE0390039BDA6C039B9B6C9A42F0
:1034100016D0039BDB6C039A134493F82830DAB27E
:10342000009B1A70039BDB6C01335A4203F01F03AD
:1034300002F01F0258BF5342039AD364012300E0F5
:103440000023184605B05DF804FB00B585B0019077
:103450000B468DF803300198FFF7B4FE0390039BF1
:1034600000221A6500BF039B1B6A01335A4203F016
:103470001F0302F01F0258BF5342039A526A93423D
:10348000F1D0039B1B6A039A9DF80310D154039B50
:103490001B6A01335A4203F01F0302F01F0258BF98
:1034A0005342039A1362019BDB6843F0C002019B05
:1034B000DA6000BF05B05DF804FB00B587B001908D
:1034C000009100230593009B002B3BD00198FFF750
:1034D00079FE0490049B00221A6529E000BF049B3A
:1034E0001B6A01335A4203F01F0302F01F0258BF48
:1034F0005342049A526A9342F1D0049B1B6A049A85
:103500009DF80F10D154049B1B6A01335A4203F0FB
:103510001F0302F01F0258BF5342049A1362059B17
:1035200001330593019BDB6843F0C002019BDA6025
:10353000009B5A1C00921B788DF80F309DF80F30BD
:10354000002BCBD1059B184607B05DF804FB0EB4E9
:1035500000B590B0019012AB0C93B0E0119B1B78BA
:10356000252B40F0A380119B01331193119B1B78F5
:10357000252B3BD0252BC0F29280782B00F38F8037
:10358000632BC0F28C80633B152B00F2888001A274
:1035900052F823F0F7350008253600089F3600085A
:1035A0009F3600089F3600089F3600089F360008A7
:1035B0009F3600089F3600089F3600089F36000897
:1035C0009F3600089F3600089F3600089F36000887
:1035D0009F360008113600089F3600085B36000849
:1035E0009F3600089F3600087D3600082521019887
:1035F000FFF72BFF60E00C9B1A1D0C921B688DF8E7
:1036000037309DF8373019460198FFF71EFF53E019
:103610000C9B1A1D0C921B680E930E990198FFF7D4
:103620004CFF49E00C9B1A1D0C921B680F930F9BDB
:10363000002B06DA2D210198FFF707FF0F9B5B4255
:103640000F9303AB0A220F99184600F0D9F803AB89
:1036500019460198FFF731FF2EE00C9B1A1D0C92C2
:103660001B680F9303AB0A220F99184600F0C8F8A5
:1036700003AB19460198FFF720FF1DE00C9B1A1DB4
:103680000C921B680F9303AB10220F99184600F0A1
:10369000B7F803AB19460198FFF70FFF0CE0119B39
:1036A0001B7819460198FFF7D0FE05E0119B1B78A7
:1036B00019460198FFF7C9FE119B01331193119B25
:1036C0001B78002B7FF44AAF00BF00BF10B05DF83D
:1036D00004EB03B0704700B587B0039002910192EC
:1036E000029B002B30D00398FFF76CFD0490049BE5
:1036F00000221A650023059320E000BF049BDA6CCA
:10370000049B9B6C9A42F9D0049BDA6C059B02994E
:103710000B4404990A4492F82820D2B21A70049BF0
:10372000DB6C01335A4203F01F0302F01F0258BF43
:103730005342049AD364059B01330593059A019B78
:103740009A42DADB019B00E00023184607B05DF8DF
:1037500004FB00B587B0039002910192029B002BFD
:103760003BD00398FFF72EFD0490049B00221A65BE
:10377000002305932BE000BF049B1B6A01335A42D0
:1037800003F01F0302F01F0258BF5342049A526A0B
:103790009342F1D0059B029A1A44049B1B6A11784C
:1037A000049AD154049B1B6A01335A4203F01F034D
:1037B00002F01F0258BF5342049A1362039BDB6856
:1037C00043F0C002039BDA60059B01330593059A21
:1037D000019B9A42CFDB019B00E00023184607B013
:1037E0005DF804FB82B00190019B1B6803F040036D
:1037F000002B14BF01230023DBB2184602B0704730
:1038000088B0039002910192039B0693029B019A58
:10381000B3FBF2F2019901FB02F29A1A039B591CC5
:1038200003911F498A5C1A70029A019BB2FBF3F361
:103830000293029B002BE9D1039B00221A70039A8A
:10384000069BD31A0593002307931CE0079B069A57
:1038500013441B788DF81330059A079BD31A013B4C
:10386000069A1A44079B06990B4412781A70059A17
:10387000079BD31A013B069A13449DF813201A7034
:10388000079B01330793059BDA0F13445B101A461D
:10389000079B9342DADB00BF00BF08B0704700BF50
:1038A000AC00002086B00190009100230593019B9D
:1038B0005A1C01921B788DF80F3038E09DF80F30BC
:1038C0002F2B08D99DF80F30392B04D89DF80F30D5
:1038D000303B04931EE0009B102B0CD19DF80F3061
:1038E000402B08D99DF80F30462B04D89DF80F3097
:1038F000373B04930EE0009B102B1CD19DF80F303A
:10390000602B18D99DF80F30662B14D89DF80F3016
:10391000573B0493009B059A02FB03F3049A13445C
:103920000593019B5A1C01921B788DF80F309DF86E
:103930000F30002BC2D1059B184606B0704700BF60
:10394000024B01221A6000BF704700BF080C002024
:1039500030B585B001900B46ADF802304FF0000352
:103960000393002302931BE0029B5B00019A134424
:103970001B881BB21946029B5B00019A13441B88EB
:103980001BB201FB03F307EE903AF8EEE77A9DEDE8
:10399000037A77EE277ACDED037A029B0133029307
:1039A000BDF90230029A9A42DEDB039801F06EFB09
:1039B00004460D46BDF90230184601F055FB02469B
:1039C0000B464FF000000A4901F0E2FC02460B46AC
:1039D0002046294601F0B2FB02460B461046194626
:1039E00001F0E6FD03460393039B184605B030BD86
:1039F0000000F03F88B00390019200930B46ADF8B1
:103A00000A30002307937DE00023069355E0069BD0
:103A10009B00039A13441B88ADF81630069B9B004D
:103A20000233039A13441B88ADF81430069A079B9F
:103A30009A422FDB069A079BD31A5A00009B134425
:103A4000BDF90A2093FBF2F101FB02F29B1A5B0025
:103A5000039A13441B88ADF81430079B9B00019A0E
:103A6000134493ED007ABDF9163007EE903AF8EE64
:103A7000E76ABDF9143007EE903AF8EEE77A66EEA1
:103A8000A77A079B9B00019A134477EE277AC3ED30
:103A9000007A0FE0079B9B00019A1344D3ED007A54
:103AA000079B9B00019A13449FED1B7A77EE877A60
:103AB000C3ED007A069B01330693BDF90A30DA0F95
:103AC00013445B101BB21A46069B93429FDB079B75
:103AD0009B00019A1344D3ED006ABDF90A30DA0F56
:103AE00013445B101BB207EE903AB8EEE77A079BDF
:103AF0009B00019A1344C6EE877AC3ED007A079BB8
:103B000001330793079A009B9A42FFF67DAF00BFEF
:103B100000BF08B0704700BF0000000084B00190F3
:103B20000091002303930123029315E0029B9B0065
:103B3000019A134493ED007A039B9B00019A13446E
:103B4000D3ED007AB4EEE77AF1EE10FA01DD029BD4
:103B50000393029B01330293029A009B9A42E5DB96
:103B6000039B184604B0704784B001900091002375
:103B700003930FE0039A019BD11A039B9B00009AC9
:103B8000134407EE901AF8EEE77AC3ED007A039B30
:103B900001330393019B5B00039A9A42EADD00BF65
:103BA00000BF04B0704700B583B00190019B002BAB
:103BB00005D0054B1B6801211846FDF784FC00BFAA
:103BC00003B05DF804FB00BFE88D000808B5064BA4
:103BD00018680023054A0121FDF786F90020FFF748
:103BE000E2FF0023184608BDE88D000840000100F0
:103BF00000B585B00190009100990198FFF78EFF04
:103C00000390009BDA0F13445B105B421A46039B40
:103C100013440293029B184605B05DF804FB00B5FF
:103C200085B001900091019801F01EFA1BA3D3E921
:103C3000002301F083FA02460B46104619464FF066
:103C40000002154B01F0A4FB02460B461046194634
:103C500001F0AEFC034603939DED037ADDED007A9F
:103C6000C7EE276A16EE900A01F010FA02460B46DC
:103C70001046194601F016FD02460B46104619463D
:103C800001F096FC03460293029B184605B05DF8CE
:103C900004FB00BFAFF300800040CF4000000000F5
:103CA0000070754000B585B001900091019B0293B2
:103CB000029B002B02DA019B5B42019301230393D9
:103CC000019A1A4B83FB02139910D317C91A0B469A
:103CD0009B000B445B00D11ACAB2039B591C039191
:103CE0001946009B0B443032D2B21A70019B0F4A26
:103CF00082FB03129210DB17D31A0193019B002B56
:103D0000DEDC029B002B07DA039B5A1C03921A4647
:103D1000009B13442D221A70009B58221A700098A1
:103D200000F006F800BF05B05DF804FB6766666644
:103D300000B587B0019000230593019800F0A0FF23
:103D40000346013B049319E0059B019A13441B7839
:103D50008DF80F30049B019A1A44059B01990B447E
:103D600012781A70049B019A13449DF80F201A7060
:103D7000059B01330593049B013B0493059A049B27
:103D80009A42E1DB00BF00BF07B05DF804FB2DE9FC
:103D9000B04F96B000AF07F1080300221A605A60D6
:103DA0009A60DA601A615A619A614FF47A53FB6043
:103DB00010233B6102237B614023BB618C4BFB6181
:103DC0008C4B3B6207F10803184600F02BF900F01A
:103DD000A9FA894B1B6800224FF4E1311846FFF71E
:103DE00015FA864B186800234FF480322021FDF726
:103DF0007BF80A237B657B6D5B0001333B65396D86
:103E00004B1EFB640A4600233A607B604FF00002C1
:103E10004FF0000378684301386843EAD06338689C
:103E200042010A46002392469B464FF000024FF0A3
:103E300000034FEA4B1343EADA634FEA4A120B4698
:103E40009B000733DB08DB00ADEB030D6B46033350
:103E50009B089B00BB640B469B001A460021B86C74
:103E600000F0BAFE396D4B1E7B640A460023904673
:103E700099464FF000024FF000034FEA491343EA1E
:103E8000D8634FEA48120A46002314461D464FF0F5
:103E900000024FF000036B0143EAD46362010B465A
:103EA0009B000733DB08DB00ADEB030D6B460333F0
:103EB0009B089B003B64396C786DFFF755FE504BB7
:103EC0001B68002BFBD04F49494800F097FB4C4B37
:103ED00000221A604C4BFB634FF4A0714948FFF776
:103EE00037FDB86397ED0E7AD7ED0F7AB4EEE77A27
:103EF000F1EE10FA73DD414B1B689A693F4B1B686A
:103F000042F020029A614FF4A0737B637B6B19B27D
:103F10003B6DBA6C3B48FFF76DFD396DB86CFFF730
:103F2000FDFD38633A6C3B6B9B0013441B68FB62DE
:103F3000D7ED0B7A9FED357AC7EE876A16EE900AB9
:103F400001F0A4F84FF00002314B01F0F7F80246FF
:103F50000B4614461D462F4B1B68184601F096F879
:103F600002460B462046294601F012FA02460B464D
:103F70001046194601F01CFB0346184601F0C2FB2F
:103F8000B862B86A01F082F84FF00002224B01F0EB
:103F9000D5F802460B4614461D46204B1B681846B2
:103FA00001F074F802460B462046294601F0F0F96C
:103FB00002460B461046194601F0D2FA03467B62D0
:103FC0001749786AFFF76EFE154B582B3FF477AF11
:103FD000094B1B6812491846FFF7B9FA6FE7074B00
:103FE0001B689A69054B1B6842F400129A6166E7E8
:103FF0000C0C0020413900089C8D0008E88D000859
:10400000080C00200C2A0020C039834A00007A46A0
:1040100000407540C000002000806640C4000020C1
:104020008C2C002030B593B00390304B0AAC1D4669
:104030000FCD0FC42B6823602D4B05AC1D460FCD53
:104040000FC42B682360039BDB682A4A9360039BA1
:104050005B68284A1360039B9B68264A5360039B56
:104060001B69244A5361234B00229A61039B5B69BD
:10407000204AD360039B9B691E4A5365039B5B6880
:104080004BF68032934222D04BF68032934224D8B2
:10409000B3F5FA4F15D0B3F5FA4F1ED8B3F5FA5F62
:1040A00003D0B3F57A5F06D017E04FF4A063109306
:1040B0000023119314E04FF4A06310930023119395
:1040C0000EE04FF4006310930223119308E04FF4C5
:1040D000406310930423119302E00023109300BF68
:1040E000109B002B08D16FF00103F7E0BC8E000895
:1040F000D08E0008A02C0020109B4FF47A7203FB96
:1041000002F2039B5B68B2FBF3F3764AD364109B25
:10411000DB08744A926803FB02F213469B001344C7
:104120005B001A466F4B1A616E4B9B68012B51D98D
:10413000109B5B001093119B013311936A4B18681D
:1041400000234FF002123021FCF7CEFE674B1B68B4
:104150001A6C664B1B6842F002021A64644B1B68BF
:1041600000229A62624B1B680122DA62604B1B6874
:1041700001229A635E4B1B6801229A615C4B1B68AB
:104180009A695B4B1B6842F4C0429A61584B1B68AA
:104190001A6A574B1B6822F00B021A62544B1B68B9
:1041A0001A6A534B1B6842F011021A62504B1B688B
:1041B0009A684F4B1B6822F077029A604C4B1B6841
:1041C0009A684B4B1B6842F057029A60484B1B6839
:1041D00001225A61119A13465B0013449B00454A21
:1041E00013441846FCF73CFA404B1B681A6A3F4BD5
:1041F0001B6842F480421A623C4B1B681A6A3B4BB4
:104200001B6822F480421A62384B1B681A6C374BC9
:104210001B6842F480421A64374B9A69109B4FF432
:104220007A7101FB03F3B2FBF3F30F930F9B1B02B5
:1042300003F480710F9B5B08DAB2304B1B680A43B2
:104240001A62294B186800232D4A4FF42041FCF7CD
:104250004BFE2C4B186805AB0AAA2B4901914FF471
:10426000003100910321FDF7ADFF03461D4A1365A0
:10427000224B1B6801225A60204B1B6840F6183203
:10428000DA611B4B1B6801225A61194B1B68012222
:104290001A601A4B1B68DA69184B1B6842F480627B
:1042A000DA61104B1A6D0F4B1B695B089BB2194604
:1042B0001046FEF757F90B4B1B680A4A9168094AEA
:1042C0009268184600F04EFA0346002B02D04FF0D9
:1042D000FF3303E0034B02229A610023184613B018
:1042E00030BD00BFA02C0020EC8D0008048E00081B
:1042F000748D0008748E0008C00A0020908D00089C
:10430000050002000C8E0008254A000808B500F0E0
:104310003FF8034B00229A610023184608BD00BFF6
:10432000A02C002008B5174B9B68022B02D96FF018
:10433000030325E0134B9B68012B0BD0124B1B682A
:1043400001225A61104B1B681A680F4B1B6842F020
:1043500001021A600D4B1B68DA690C4B1B6842F4B2
:104360008062DA61074B1A6D064B1B695B089BB2D2
:1043700019461046FEF7F6F8024B01229A61002317
:10438000184608BDA02C0020748D0008908D0008F0
:1043900008B5114B9B68022B02D96FF0030318E09C
:1043A0000E4B1B681A680D4B1B6822F001021A6045
:1043B0000B4B1B68DA690A4B1B6822F48062DA61D6
:1043C000054B1B6D1846FEF7F8F8034B02229A6165
:1043D0000023184608BD00BFA02C0020748D0008E3
:1043E000908D0008064B1B68DA69054B1B6822F4A8
:1043F0008062DA61034B03229A61002318467047FA
:10440000908D0008A02C0020064B1B68DA69054B34
:104410001B6842F48062DA61034B01229A61002337
:1044200018467047908D0008A02C002000B58BB076
:104430000190134B9B69022B1AD1114B9B68069379
:10444000019B04930E4B5B6805930D4B5B690793CF
:104450000B4BDB6808930A4B5B6D099303AB184663
:10446000FFF7E0FD0346002B05D04FF0FF3303E0DC
:104470006FF0020300E0002318460BB05DF804FB68
:10448000A02C002082B00190034B1A68019B1A6097
:104490000023184602B07047A02C002000B58BB056
:1044A0000190134B9B69022B1AD1114B9B68069309
:1044B0000F4B1B680493019B05930D4B5B6907939E
:1044C0000B4BDB6808930A4B5B6D099303AB1846F3
:1044D000FFF7A8FD0346002B05D04FF0FF3303E0A4
:1044E0006FF0020300E0002318460BB05DF804FBF8
:1044F000A02C002082B00190034B5A68019B1A60E7
:104500000023184602B07047A02C002082B0019012
:104510006FF00103184602B0704782B00190044B5F
:104520009A68019B1A600023184602B0704700BFCA
:10453000A02C002000B585B001900023039330E04B
:104540001E49039A13465B0013445B000B4404337B
:10455000B3F900201A49019B31F913309A421DD05A
:10456000174A019B32F913001449039A13465B0062
:1045700013445B000B44043302461A80039B4C2215
:1045800002FB03F30F4A9818039A13465B00134487
:104590005B000A4A1344194604F076F8039B013382
:1045A0000393094B9B68039A9A42C9D3064A019B1D
:1045B00053610023184605B05DF804FB582E002017
:1045C00048010020282D0020A02C002082B001905E
:1045D000034B5A69019B1A600023184602B07047CA
:1045E000A02C002082B00190034B9A69019B1A60B5
:1045F0000023184602B07047A02C002000B5FDB083
:104600007CABA3F5F67318607CABA3F5F873196067
:1046100000237B9394E0504B1B68B3F5FA5F39D1CC
:104620007CABA3F5F6731A687B9BD0187B9B4C225E
:1046300002FB03F3494A1A442AAB194604F020F955
:104640007B9A13465B0013449B00454A981802AAC4
:104650002AA9A02304F022F900237A9316E03E4B06
:104660009B687A9A03FB02F27B9B13445B007CAA53
:10467000A2F5F872126813447CAAA2F5F4727A9932
:1046800032F811201A807A9B01337A937A9B4F2B50
:10469000E5D952E0304B5B68202B36D0202B4BD82D
:1046A000102B02D0182B17D046E07CABA3F5F67385
:1046B0001A687B9BD0187B9B5B007CAAA2F5F872E2
:1046C0001268D1187B9B4C2202FB03F3234A13444C
:1046D0001A4604F0D5F830E07CABA3F5F6731A68FF
:1046E0007B9BD0187B9A13465B0013447CAAA2F5EF
:1046F000F8721268D1187B9B4C2202FB03F3174A15
:1047000013441A4604F0BCF817E07CABA3F5F6732B
:104710001A687B9BD0187B9B5B007CAAA2F5F87281
:104720001268D1187B9B4C2202FB03F30B4A134403
:104730001A4604F0A5F800E000BF7B9B01337B9391
:10474000054B9B687B9A9A42FFF465AF002318469D
:104750007DB05DF804FB00BFA02C0020282D0020B8
:10476000F82C002000B589B0059004910392A44B69
:104770001B681A6BA24B1B6842F480521A63002319
:10478000079333E1002306939E4A079B4C2101FBCC
:1047900003F3134400221A80049B012B09D1994A88
:1047A000079B4C2101FB03F31344023301221A80BF
:1047B00008E0944A079B4C2101FB03F313440233A6
:1047C00000221A808F4A079B4C2101FB03F31344FC
:1047D00004338D4A1A60039B98B28A4A079B4C2186
:1047E00001FB03F313440A3302461A80049B98B278
:1047F000844A079B4C2101FB03F313440833024610
:104800001A80059B814AA2FB03239B099BB21A468F
:10481000920013445B0098B27D49079A13465B00EF
:1048200013445B000B44023302461A807849079A0E
:1048300013465B0013445B000B44043318221A80B8
:10484000744BDB6CA02B66D0A02B00F2A280802BD7
:1048500057D0802B00F29D80502B48D0502B00F277
:104860009880402B39D0402B00F29380302B2AD0F7
:10487000302B00F28E80202B1BD0202B00F2898061
:10488000102B02D0182B0AD083E06149079A1346F7
:104890005B0013445B000B4405221A807AE05C49FC
:1048A000079A13465B0013445B000B4406221A80F0
:1048B00070E05749079A13465B0013445B000B44B2
:1048C00007221A8066E05249079A13465B00134498
:1048D0005B000B4401221A805CE04D49079A1346A5
:1048E0005B0013445B000B4402221A8052E04849EB
:1048F000079A13465B0013445B000B4403221A80A3
:1049000048E04349079A13465B0013445B000B449D
:1049100004221A803EE03E49079A13465B00134486
:104920005B000B4403221A803949079A13465B0047
:1049300013445B000B4402331B885B0098B234497C
:10494000079A13465B0013445B000B440233024694
:104950001A802C4A079B4C2101FB03F313440A33B2
:1049600001221A80079A13465B0013449B002A4ACF
:104970009818079B4FF4AF7202FB03F3274A1344C6
:10498000A02201920093264B0222102104F098F9F4
:1049900000E000BF079B4C2202FB03F3194A1344BB
:1049A000184603F0BDFD03460693069B002B02D07C
:1049B0004FF0FF3320E0079B4C2202FB03F3114A28
:1049C0009818079A13465B0013445B00104A13447F
:1049D000194603F059FE03460693069B002B02D0AE
:1049E0004FF0FF3308E0079B01330793079A049BBE
:1049F0009A42FFF4C7AE0023184609B05DF804FBE5
:104A0000048E0008282D0020489D807ED34D621022
:104A1000582E0020A02C0020F82C0020706A0020C6
:104A20004C02002000B587B001900091464B9B6876
:104A3000042B7BD0042B7BD8012B02D0022B1DD062
:104A400076E0009B002B01D0404B00E0404B0293EE
:104A5000002305930BE0029A059B1A443A4BD96850
:104A6000059B0B4412781A70059B01330593364B56
:104A70001B699B08059A9A42EDD35AE0009B002BD4
:104A800001D0324B00E0324B04930023059346E003
:104A9000059B5B00049A13441B788DF80F30059B2F
:104AA0005B000133049A13441B788DF80E309DF897
:104AB0000F3003F05503274AD35C5AB29DF80E30ED
:104AC00003F055032349CB5C1B015BB2134359B27E
:104AD0001D4BDA68059B5B001344CAB21A709DF83F
:104AE0000F305B08DBB203F055031A4AD35C5AB2AD
:104AF0009DF80E305B08DBB203F055031549CB5C23
:104B00001B015BB2134359B20F4BDA68059B5B0084
:104B100001331344CAB21A70059B013305930A4B43
:104B20001B695B08059A9A42B2D302E000BF00E01D
:104B300000BF054B5B6D002B02D0034B5B6D9847AC
:104B400000BF07B05DF804FBA02C0020702E0020F1
:104B5000704C0020C8000020002301461A46184669
:104B600000F0FCB838B5084B084D5B1B9C1007D013
:104B7000043B1D44013C55F804399847002CF9D1F9
:104B8000BDE8384004F0C8B85C8F0008588F0008B2
:104B900070B50D4E0D4D761BB61006D0002455F89D
:104BA000043B01349847A642F9D1094E094D761BC2
:104BB00004F0ACF8B61006D0002455F8043B0134DC
:104BC0009847A642F9D170BD508F0008508F000859
:104BD000588F0008508F0008830730B548D0541E06
:104BE000002A3FD0CAB2034601E0013C3AD303F8A1
:104BF000012B9D07F9D1032C2DD9CDB245EA05250E
:104C00000F2C45EA054536D9A4F1100222F00F0C0D
:104C100003F1200EE6444FEA121C03F1100242E9B0
:104C2000045542E9025510327245F8D10CF10102E7
:104C300014F00C0F03EB021204F00F0C13D0ACF1C4
:104C4000040323F003030433134442F8045B934248
:104C5000FBD10CF003042CB1CAB21C4403F8012BA5
:104C60009C42FBD130BD64461346002CF4D1F9E7D9
:104C700003461446BFE71A46A446E0E700000000DA
:104C800090F800F06DE9024520F007016FF0000C8C
:104C900010F0070491F820F040F049804FF0000434
:104CA0006FF00700D1E9002391F840F000F108000F
:104CB00082FA4CF2A4FA8CF283FA4CF3A2FA8CF347
:104CC0004BBBD1E9022382FA4CF200F10800A4FAAE
:104CD0008CF283FA4CF3A2FA8CF3E3B9D1E9042302
:104CE00082FA4CF200F10800A4FA8CF283FA4CF339
:104CF000A2FA8CF37BB9D1E9062301F1200182FAF3
:104D00004CF200F10800A4FA8CF283FA4CF3A2FAF8
:104D10008CF3002BC6D0002A04BF04301A4612BA06
:104D2000B2FA82F2FDE8024500EBD2007047D1E909
:104D3000002304F00305C4F100004FEAC50514F098
:104D4000040F91F840F00CFA05F562EA05021CBF69
:104D500063EA050362464FF00004A9E770B4184CFB
:104D60002568D5F848411CB365681F2D25DC38B986
:104D7000AB1C0135656044F82310002070BC7047FF
:104D800004EB850C0228CCF88820D4F888614FF019
:104D9000010202FA05F246EA0206C4F88861CCF87C
:104DA0000831E5D1D4F88C311343C4F88C31DFE7F6
:104DB00005F5A674C5F84841D6E74FF0FF30DDE7AA
:104DC0001C8F000881F0004102E000BF83F0004327
:104DD00030B54FEA41044FEA430594EA050F08BF96
:104DE00090EA020F1FBF54EA000C55EA020C7FEA5A
:104DF000645C7FEA655C00F0E2804FEA5454D4EBD7
:104E00005555B8BF6D420CDD2C4480EA020281EAA0
:104E1000030382EA000083EA010180EA020281EAD8
:104E20000303362D88BF30BD11F0004F4FEA01312A
:104E30004FF4801C4CEA113102D0404261EB410139
:104E400013F0004F4FEA03334CEA133302D05242BF
:104E500063EB430394EA050F00F0A780A4F101047B
:104E6000D5F1200E0DDB02FA0EFC22FA05F28018B5
:104E700041F1000103FA0EF2801843FA05F359419B
:104E80000EE0A5F120050EF1200E012A03FA0EFC1A
:104E900028BF4CF0020C43FA05F3C01851EBE37144
:104EA00001F0004507D54FF0000EDCF1000C7EEB61
:104EB00000006EEB0101B1F5801F1BD3B1F5001F9F
:104EC0000CD349085FEA30004FEA3C0C04F10104BE
:104ED0004FEA445212F5800F80F09A80BCF1004FE7
:104EE00008BF5FEA500C50F1000041EB045141EA69
:104EF000050130BD5FEA4C0C404141EB0101013C32
:104F000028BFB1F5801FE9D291F0000F04BF014620
:104F10000020B1FA81F308BF2033A3F10B03B3F1F2
:104F200020020CDA0C3208DD02F1140CC2F10C0282
:104F300001FA0CF021FA02F10CE002F11402D8BFE0
:104F4000C2F1200C01FA02F120FA0CFCDCBF41EAAC
:104F50000C019040E41AA2BF01EB0451294330BD7B
:104F60006FEA04041F3C1CDA0C340EDC04F1140458
:104F7000C4F1200220FA04F001FA02F340EA03002F
:104F800021FA04F345EA030130BDC4F10C04C4F175
:104F9000200220FA02F001FA04F340EA0300294655
:104FA00030BD21FA04F0294630BD94F0000F83F49F
:104FB000801306BF81F480110134013D4EE77FEA82
:104FC000645C18BF7FEA655C29D094EA050F08BFCE
:104FD00090EA020F05D054EA000C04BF19461046AF
:104FE00030BD91EA030F1EBF0021002030BD5FEAF3
:104FF000545C05D14000494128BF41F0004130BD1B
:1050000014F580043CBF01F5801130BD01F000456E
:1050100045F0FE4141F470014FF0000030BD7FEAE1
:10502000645C1ABF194610467FEA655C1CBF0B46DC
:10503000024650EA013406BF52EA033591EA030FF3
:1050400041F4002130BD00BF90F0000F04BF0021EB
:10505000704730B54FF4806404F132044FF000051E
:105060004FF0000150E700BF90F0000F04BF002197
:10507000704730B54FF4806404F1320410F00045FD
:1050800048BF40424FF000013EE700BF42004FEAF8
:10509000E2014FEA31014FEA02701FBF12F07F4375
:1050A00093F07F4F81F06051704732F07F4208BF2C
:1050B000704793F07F4F04BF41F40021704730B533
:1050C0004FF4607401F0004521F000411CE700BF7F
:1050D00050EA010208BF704730B54FF000050AE002
:1050E00050EA010208BF704730B511F0004502D503
:1050F000404261EB41014FF4806404F132045FEA05
:10510000915C3FF4D8AE4FF003025FEADC0C18BFAD
:1051100003325FEADC0C18BF033202EBDC02C2F19F
:10512000200300FA03FC20FA02F001FA03FE40EA31
:105130000E0021FA02F11444BDE600BF70B54FF035
:10514000FF0C4CF4E06C1CEA11541DBF1CEA135513
:1051500094EA0C0F95EA0C0F00F0DEF82C4481EA7B
:10516000030621EA4C5123EA4C5350EA013518BF9B
:1051700052EA033541F4801143F4801338D0A0FB88
:1051800002CE4FF00005E1FB02E506F00042E0FB35
:1051900003E54FF00006E1FB03569CF0000F18BF3B
:1051A0004EF0010EA4F1FF04B6F5007F64F54074E3
:1051B00004D25FEA4E0E6D4146EB060642EAC62176
:1051C00041EA55514FEAC52040EA5E504FEACE2EE3
:1051D000B4F1FD0C88BFBCF5E06F1ED8BEF1004FE6
:1051E00008BF5FEA500E50F1000041EB045170BD62
:1051F00006F0004646EA010140EA020081EA0301A6
:10520000B4EB5C04C2BFD4EB0C0541EA045170BDA1
:1052100041F480114FF0000E013C00F3AB8014F11B
:10522000360FDEBF002001F0004170BDC4F1000464
:10523000203C35DA0C341BDC04F11404C4F12005E5
:1052400000FA05F320FA04F001FA05F240EA020040
:1052500001F0004221F0004110EBD37021FA04F676
:1052600042EB06015EEA430E08BF20EAD37070BD30
:10527000C4F10C04C4F1200500FA04F320FA05F08F
:1052800001FA04F240EA020001F0004110EBD37091
:1052900041F100015EEA430E08BF20EAD37070BD01
:1052A000C4F1200500FA05F24EEA020E20FA04F3DA
:1052B00001FA05F243EA020321FA04F001F0004189
:1052C00021FA04F220EA020000EBD3705EEA430EFA
:1052D00008BF20EAD37070BD94F0000F0FD101F029
:1052E0000046400041EB010111F4801F08BF013C62
:1052F000F7D041EA060195F0000F18BF704703F0A0
:105300000046520043EB030313F4801F08BF013D26
:10531000F7D043EA0603704794EA0C0F0CEA1355E2
:1053200018BF95EA0C0F0CD050EA410618BF52EA9C
:105330004306D1D181EA030101F000414FF00000A2
:1053400070BD50EA410606BF1046194652EA4306B0
:1053500019D094EA0C0F02D150EA013613D195EA24
:105360000C0F05D152EA03361CBF104619460AD16C
:1053700081EA030101F0004141F0FE4141F4700176
:105380004FF0000070BD41F0FE4141F4780170BD66
:1053900070B54FF0FF0C4CF4E06C1CEA11541DBFCB
:1053A0001CEA135594EA0C0F95EA0C0F00F0A7F8CD
:1053B000A4EB050481EA030E52EA03354FEA0131FA
:1053C00000F088804FEA03334FF0805545EA13130D
:1053D00043EA12634FEA022245EA111545EA1065D5
:1053E0004FEA00260EF000419D4208BF964244F16C
:1053F000FD0404F5407402D25B084FEA3202B61A8B
:1054000065EB03055B084FEA32024FF480104FF45E
:10541000002CB6EB020E75EB030E22BFB61A7546D2
:1054200040EA0C005B084FEA3202B6EB020E75EB65
:10543000030E22BFB61A754640EA5C005B084FEACD
:105440003202B6EB020E75EB030E22BFB61A75469A
:1054500040EA9C005B084FEA3202B6EB020E75EBA5
:10546000030E22BFB61A754640EADC0055EA060E66
:1054700018D04FEA051545EA16754FEA06164FEAA9
:10548000C30343EA52734FEAC2025FEA1C1CC0D155
:1054900011F4801F0BD141EA00014FF000004FF0E2
:1054A000004CB6E711F4801F04BF01430020B4F1A3
:1054B000FD0C88BFBCF5E06F3FF6AFAEB5EB030C5B
:1054C00004BFB6EB020C5FEA500C50F1000041EB58
:1054D000045170BD0EF0004E4EEA113114EB5C0425
:1054E000C2BFD4EB0C0541EA045170BD41F48011F8
:1054F0004FF0000E013C90E645EA060E8DE60CEA00
:10550000135594EA0C0F08BF95EA0C0F3FF43BAF1C
:1055100094EA0C0F0AD150EA01347FF434AF95EAD3
:105520000C0F7FF425AF104619462CE795EA0C0FB7
:1055300006D152EA03353FF4FDAE1046194622E784
:1055400050EA410618BF52EA43067FF4C5AE50EA5E
:1055500041047FF40DAF52EA43057FF4EBAE12E74E
:105560004FEA410212F5001215D211D56FF478738B
:10557000B3EB625212D94FEAC12343F0004343EA2E
:10558000505311F0004F23FA02F018BF4042704709
:105590004FF00000704750EA013005D111F0004093
:1055A00008BF6FF0004070474FF00000704700BF29
:1055B0004FEA4102B2F1E04324BFB3F5001CDCF135
:1055C000FE5C0DD901F0004C4FEAC0024CEA50706D
:1055D000B2F1004F40EB830008BF20F0010070479C
:1055E00011F0804F21D113F13872BCBF01F000409F
:1055F000704741F480114FEA5252C2F11802C2F1D1
:10560000200C10FA0CF320FA02F018BF40F0010051
:105610004FEAC1234FEAD32303FA0CFC40EA0C0003
:1056200023FA02F34FEA4303CCE77FEA625307D140
:1056300050EA01331EBF4FF0FE4040F44000704777
:1056400001F0004040F0FE4040F40000704700BF11
:10565000C0F3C7527F3A162A014614DC002A0DDB3C
:105660000F4B43FA02FC10EA0C0F0BD04FF48003EF
:1056700043FA02F0084420EA0C007047013200F0BF
:10568000004009D07047802AFCD107EE900A77EEDF
:10569000A77A17EE900A704740F07E50704700BF1F
:1056A000FFFF7F00F8B504460D4600F001F9124BEC
:1056B00093F90030013306460F460FD022462B46A1
:1056C0002046294601F07AF940B92046294600F0E3
:1056D000F9FF0A4B002201F067F910B9304639464C
:1056E000F8BD01F081F9034621221A600448BDE8A3
:1056F000F84000F0EBBF00BFA00A00200000F03F20
:105700004C8F000810B52DED028B08EE100A00F04A
:10571000B3FB144B93F900300133044611D0B4EEBF
:10572000488AF1EE10FA0CD618EE100A00F0D4FFF9
:1057300007EE100AF7EE007AB4EEE77AF1EE10FA0F
:1057400003DCBDEC028B204610BD01F04DF9BDEC31
:10575000028B03462122BDE8104003481A6000F086
:10576000C7BF00BFA00A00204C8F000810B52DED68
:10577000048B08EE900A08EE101A00F089FC484BE2
:1057800093F90030013304461FD0B4EE488AF1EE9D
:1057900010FA1AD6F4EE688AF1EE10FA5AD69FED96
:1057A000419AF4EE498AF1EE10FA12D1B4EE498A28
:1057B000F1EE10FA29D018EE100A00F091FF20B196
:1057C000B4EEC98AF1EE10FA4ED4BDEC048B20463B
:1057D00010BD00F085FFF0B107EE904AF5EE407A7B
:1057E000F1EE10FAF1D118EE900A00F079FF0028DE
:1057F000EBD018EE100A00F073FF0028E5D001F09E
:10580000F3F8222300240360DFE7BDEC048B4FF0A4
:105810007E54204610BD18EE900A00F061FF00286B
:10582000DAD018EE100A00F05BFF0028D4D007EEA3
:10583000904AF4EE677AF1EE10FA28D601F0D4F827
:10584000F5EEC08A2223F1EE10FA036012D44FF075
:10585000FF44BAE7B5EE408AF7EE007AF1EE10FAAF
:1058600008BF17EE904AB0E701F0BEF821230E4CB6
:105870000360AAE718EE100A00F03EFF07EE900A58
:10588000F4EE487AF1EE10FAE1D0074C9DE701F012
:10589000ABF8C9EE097A2123036017EE904A94E72A
:1058A000A00A002000000000000080FF00000000AF
:1058B0002DE9F84FC24B21F000479F422DED048B9C
:1058C00004460D462CDD07F1404707F580170346D7
:1058D0003B430BD002460B46FFF778FA02460B46D5
:1058E000FFF756FDBDEC048BBDE8F88F98A3D3E914
:1058F0000023FFF723FC02460B46204629461446A8
:105900001D4695A3D3E90023FFF718FC02460B467A
:1059100020462946FFF75CFABDEC048BBDE8F88F02
:10592000A84B9F420E460FDCB7F1795F80F252819F
:105930008BA3D3E90023FFF74BFAA34B002201F01E
:1059400033F8002840F0FF802046294600F0BAFED8
:1059500002460B4600209C49FFF738FA9B4B002279
:10596000FFF7ECFB80A3D3E9002304460D46FFF7C5
:10597000E5FB7FA3D3E90023FFF72AFA22462B4653
:10598000FFF7DCFB7CA3D3E90023FFF71FFA2246D5
:105990002B46FFF7D3FB7AA3D3E90023FFF718FACE
:1059A00022462B46FFF7CAFB77A3D3E90023FFF774
:1059B0000DFA22462B46FFF7C1FB75A3D3E900235E
:1059C000FFF706FA22462B46FFF7B8FB72A3D3E98E
:1059D000002341EC180B41EC190B20462946FFF738
:1059E000ADFB6FA3D3E90023FFF7F0F922462B4666
:1059F000FFF7A4FB6CA3D3E90023FFF7E9F92246E4
:105A00002B46FFF79BFB6AA3D3E90023FFF7DEF9E0
:105A100022462B46FFF792FB6B4B0022FFF7D8F98B
:105A2000804689462046294600F070F9684B9F421F
:105A300082468B4668DC0B46002243EC182B02465C
:105A4000FFF7C6F942464B468046894651EC190B92
:105A5000FFF79EFC02460B4640464946FFF76EFBA9
:105A600053EC182B8046894651EC180BFFF766FB68
:105A700002460B4620462946FFF7A8F953EC182B9F
:105A800004460D4650465946FFF7A2F902460B461A
:105A900020462946FFF77CFC02460B46FFF798F9A3
:105AA00002460B462CA1D1E90001FFF78FF902460F
:105AB0000B4640464946FFF789F953EC182B04463C
:105AC0000D4618EE100A1946FFF782F902460B46FA
:105AD00039A1D1E90001FFF779F902460B462046CA
:105AE0002946FFF773F902460B4633A1D1E90001BD
:105AF000FFF76CF9002E3FF7F5AEBDEC048B01F11A
