:020000040800F2
:100000000000022085340008490200084D02000863
:100010004F020008510200085302000800000000CF
:10002000000000000000000000000000ED340008A7
:10003000550200080000000059020008210A0008CB
:100040000D3500080D3500080D3500080D35000888
:100050000D3500080D350008690C00088D0C0008EE
:10006000B10C0008D50C0008F90C00086515000853
:1000700025160008ED160008B51700087D180008C1
:100080003D190008051A00080D35000800000000A1
:100090000000000000000000000000001D0D00082E
:1000A0000D3500080D3500080D3500080D35000828
:1000B000D5260008012700082D2700080D35000867
:1000C0000D3500080D3500080D3500080D35000808
:1000D0000D3500080D3500080D3500080000000042
:1000E000ED0D00080D3500080D350008000000007A
:1000F000000000000000000000000000CD1A000811
:10010000000000000D350008592700080D350008D3
:1001100000000000000000000000000000000000DF
:10012000951B0008551C00081D1D0008E51D000852
:10013000AD1E0008000000000000000000000000EC
:100140000000000000000000000000000D35000865
:100150006D1F000835200008FD2000080D3500083F
:100160000D3500080D3500080000000000000000FB
:10017000000000000000000000000000000000007F
:10018000000000000D350008000000000000000025
:080190000D3500080D350008D3
:1001C0000348044B834202D0034B03B118477047E6
:1001D00020050020200500200000000005480649F9
:1001E0000B1AD90F01EBA301491002D0034B03B145
:1001F000184770472005002020050020000000005F
:1002000010B5064C237843B9FFF7DAFF044B13B15E
:100210000448AFF300800123237010BD20050020A7
:10022000000000002435000808B5044B1BB1044948
:100230000448AFF30080BDE80840CFE700000000AD
:10024000240500202435000800BF7047FEE7FEE7C4
:10025000FEE7FEE700BF704700BF704782B003466D
:100260008DF807309DF80730052B00F2928001A22F
:1002700052F823F08D020008B5020008DD020008E4
:10028000050300082D03000855030008424B1B68B6
:1002900003F00103002B71D13F4B1B683E4A43F032
:1002A0000103136000BF3C4B1B6803F00203002BEB
:1002B000F9D063E0384B1B6803F48033002B5FD127
:1002C000354B1B68344A43F45023136000BF324B54
:1002D0001B6803F40033002BF9D051E02E4B1B6850
:1002E00003F08073002B4DD12B4B1B682A4A43F03F
:1002F0008073136000BF284B1B6803F00073002B52
:10030000F9D03FE0244B1B6803F08063002B3BD106
:10031000214B1B68204A43F08063136000BF1E4BD3
:100320001B6803F00063002BF9D02DE01A4B5B6FC4
:1003300003F00103002B29D1174B5B6F164A43F0E2
:100340000103536700BF144B5B6F03F00203002BE4
:10035000F9D01BE0104B1B6F03F00103002B17D1EA
:100360000D4B1B6F0C4A43F00103136700BF0A4B90
:100370001B6F03F00203002BF9D009E000BF08E077
:1003800000BF06E000BF04E000BF02E000BF00E0E5
:1003900000BF00BF02B070470038024082B0034681
:1003A0008DF807309DF80730052B39D801A252F897
:1003B00023F000BFCD030008DB030008E9030008B9
:1003C000F70300080504000813040008164B1B6817
:1003D000154A23F00103136022E0134B1B68124AF5
:1003E00023F4502313601BE00F4B1B680E4A23F0CD
:1003F0008073136014E00C4B1B680B4A23F080637E
:1004000013600DE0084B5B6F074A23F0010353674D
:1004100006E0054B1B6F044A23F00103136700BF7E
:1004200000BF02B0704700BF0038024082B00346F0
:100430008DF807300C4B9B6823F003029DF80730C2
:1004400003F00303084913438B6000BF064B9B680E
:100450009B0803F003029DF807309A42F6D100BFD3
:1004600000BF02B0704700BF0038024000B585B041
:100470000190019B072B08D8019A1346DB009B1AB9
:100480009B00704A1344039301E06F4B0393039B5B
:100490001B78012B0FD10120FFF7E0FE0120FFF7B1
:1004A000C5FF0220FFF77AFF0020FFF777FF674BB9
:1004B00001221A609DE0039B1B78022B40F08D8087
:1004C000634B1B6C624A43F080531364039B5B785D
:1004D000012B0CD10120FFF7C1FE5C4B01221A60F9
:1004E0005B4B5B685A4A43F4800353600BE0002087
:1004F000FFF7B4FE554B00221A60554B5B68544A17
:1005000023F480035360534B1B6823F04053039A3A
:10051000D27A120711464F4A0B4313604C4B9B682B
:1005200023F47C4323F0F003039A127A1201D2B22F
:100530001A43039B5B7A9B0203F4E0531A43039B29
:100540009B7A5B039BB2424913438B60404B5A68D2
:10055000414B1340039A127902F03F021A43039B66
:100560005B889B01194647F6C0730B401A43039BF7
:100570005B795B08DBB2013B1B0403F440331A4395
:10058000039B9B791B0603F07C53314913434B605B
:100590000220FFF763FE314B1B6823F00F02039B21
:1005A000DB6803F00F0313432C4A43F4E06313604A
:1005B0000220FFF73BFF039B5B78012B09D1244B03
:1005C0001B6803F00103002B03D00020FFF7E6FEB9
:1005D0000FE00120FFF7E2FE0BE00020FFF73EFEF8
:1005E0000020FFF723FF0220FFF7D8FE0120FFF7CE
:1005F000D5FE039B1B69154A5360039B5B69134A35
:100600009360039B5B7A002B02D1039B5B6902E042
:10061000039B5B695B000D4AD360039B9B690B4A9C
:100620001361039B9B7A002B02D1039B9B6902E021
:10063000039B9B695B00054A536100BF05B05DF8F1
:1006400004FB00BF00000020700000203C050020DB
:1006500000380240007000400080FCF0003C024086
:1006600000B583B001900320FFF798FE019B9B68C3
:100670001B0703F0E042019B5B68990147F6C073DA
:100680000B4042EA0301019B1B6803F03F02104B41
:100690001B680A43C3F884200320FFF7DFFD0D4BDE
:1006A0001B68002B01D00C4A00E00C4A019B1B6820
:1006B000B2FBF3F3019A526803FB02F2019B9B68C1
:1006C000B2FBF3F3034A936100BF03B05DF804FB90
:1006D0001C3600083C05002000127A000024F400BB
:1006E00008B5184BD3F88830164A43F47003C2F8A3
:1006F0008830154B1B68144A43F001031360124BFA
:1007000000229A60104B1B680F4A23F0847323F475
:10071000803313600C4B0D4A5A600B4B1B680A4A1E
:1007200023F480231360084B0022DA600220FFF7D5
:100730009DFE044B4FF000629A6000F009F800BF84
:1007400008BD00BF00ED00E000380240103000247A
:1007500086B0002304930023059302230393002310
:10076000029302230193334B9B6803F00C03049321
:10077000049B082B11D0049B082B44D8049B002B0E
:1007800003D0049B042B04D03DE02B4B2B4A1A6072
:100790003DE0294B2A4A1A6039E0264B5B689B0DE5
:1007A00003F001030293234B5B6803F03F030193C3
:1007B000029B002B0CD0224A019BB2FBF3F31D4A93
:1007C00052689209C2F3080202FB03F305930BE09F
:1007D0001A4A019BB2FBF3F3164A52689209C2F31C
:1007E000080202FB03F30593124B5B681B0C03F03A
:1007F000030301335B000393059A039BB2FBF3F3FE
:100800000D4A136003E00C4B0C4A1A6000BF094B01
:100810009B681B0903F00F030A4AD35C0493064B41
:100820001A68049B22FA03F3034A136000BF06B060
:10083000704700BF00380240A80000200024F400E8
:1008400000127A007436000882B0064B0193064B02
:100850000093019B009A1A60009B01221A6000BF5E
:1008600002B07047700600206C08002086B001902E
:10087000019B002B49D0019B013B9B0801339B004E
:100880000193244B05933DE0059B1B6803F0010396
:10089000002B32D1059B1B6823F001031A46059BF0
:1008A000D31A043B0493049A019B9A4204D0019BFF
:1008B0000433049A9A4209D1059B1B6843F0010353
:1008C0001A46059B1A60059B04331FE0019B083301
:1008D000049A9A4211D3019B0433059A134403935B
:1008E000059B1A68039B1A60039B43F001031A4699
:1008F000059B1A60059B043308E0059B1B6823F0E9
:1009000001030593059B002BBED10023184606B0BA
:10091000704700BF7006002086B00190294B0593F8
:1009200000230493019B002B48D013E0059B043364
:10093000019A9A4207D1059B1B6823F001031A46CE
:10094000059B1A6009E0059B0493059B1B6823F037
:1009500001030593059B002BE8D1059B002B2DD0AF
:10096000059B1B6803F00103002B17D1059B1B6837
:1009700023F001031B6803F00103002B0ED1059B3C
:100980001B6823F001030393059B1B6823F00103FD
:100990001A68059B1A60039B0B4A1A60049B002B84
:1009A0000CD0049B1B6803F00103002B06D1059BB0
:1009B0001A68049B1A60059B044A1A6000BF06B0BF
:1009C000704700BF70060020FFCCCCCCBBCCCCCC99
:1009D00082B0034600918DF807309DF90730002B57
:1009E0000ADB009BDAB20C499DF907301201D2B242
:1009F0000B4483F800230BE0009BDAB207499DF813
:100A0000073003F00F03043B1201D2B20B441A76F5
:100A100000BF02B0704700BF00E100E000ED00E061
:100A200008B5084B1B680133064A1360064B1B6868
:100A30001B68064B1B68002B02D0044B1B689847B1
:100A400000BF08BD5C05002068350008580500207F
:100A500000B585B001900091234B5B68234AA2FB4F
:100A600003239A09019B02FB03F30393039BB3F156
:100A7000807F09D81E4B1B68039A013A5A601C4BB1
:100A80001B6804221A601AE0174B5B68174AA2FB26
:100A900003235A0A019B02FB03F30393039BB3F165
:100AA000807F09D8124B1B68039A013A5A60104B99
:100AB0001B6800221A6002E04FF0FF3310E00D4A7D
:100AC000009B136000214FF0FF30FFF781FF084BC0
:100AD0001B681A68064B1B6842F003021A60002369
:100AE000184605B05DF804FB3C050020D34D6210AC
:100AF0006835000858050020064B1B6800229A60E4
:100B0000044B1B681A68034B1B6842F001021A6011
:100B100000BF704768350008044B1B681A68034B18
:100B20001B6822F001021A6000BF70476835000898
:100B3000014B1B68184670475C05002084B001908B
:100B4000254B5B68254AA2FB03239A09019B02FB04
:100B500003F30393039BB3F1807F09D8204B1B68F9
:100B6000039A013A5A601E4B1B6804221A601AE06D
:100B7000194B5B68194AA2FB03235A0A019B02FB2B
:100B800003F30393039BB3F1807F09D8144B1B68D5
:100B9000039A013A5A60124B1B6800221A6002E065
:100BA0004FF0FF3314E00E4B1B6800229A600C4B91
:100BB0001B681A680A4B1B6842F001021A6000BFEA
:100BC000074B1B681B6803F48033002BF8D000230D
:100BD000184604B0704700BF3C050020D34D62109A
:100BE0006835000882B003468DF807309DF907305C
:100BF000002B0CDB9DF8073003F01F0205499DF91F
:100C000007305B09012000FA02F241F8232000BFFF
:100C100002B0704700E100E082B0034600918DF819
:100C200007309DF90730002B0ADB009BDAB20C4934
:100C30009DF907301201D2B20B4483F800230BE078
:100C4000009BDAB207499DF8073003F00F03043B1D
:100C50001201D2B20B441A7600BF02B0704700BF37
:100C600000E100E000ED00E008B5064B1B68002B3A
:100C700002D0044B1B689847034B1B6801225A6142
:100C800000BF08BD60050020EC35000808B5064B24
:100C90005B68002B02D0044B5B689847034B1B68D2
:100CA00002225A6100BF08BD60050020EC35000833
:100CB00008B5064B9B68002B02D0044B9B689847F5
:100CC000034B1B6804225A6100BF08BD6005002069
:100CD000EC35000808B5064BDB68002B02D0044B4E
:100CE000DB689847034B1B6808225A6100BF08BDA8
:100CF00060050020EC35000808B5064B1B69002B89
:100D000002D0044B1B699847034B1B6810225A61A1
:100D100000BF08BD60050020EC35000808B5314B68
:100D20001B685B6903F02003002B0BD02E4B5B6923
:100D3000002B02D02C4B5B6998472A4B1B68202262
:100D40005A614CE0274B1B685B6903F04003002BA2
:100D50000BD0254B9B69002B02D0234B9B699847F6
:100D6000204B1B6840225A6139E01E4B1B685B69AF
:100D700003F08003002B0BD01B4BDB69002B02D050
:100D8000194BDB699847174B1B6880225A6126E094
:100D9000144B1B685B6903F48073002B0CD0124B5F
:100DA0001B6A002B02D0104B1B6A98470D4B1B6827
:100DB0004FF480725A6112E00A4B1B685B6903F4BE
:100DC0000073002B0BD0084B5B6A002B02D0064B44
:100DD0005B6A9847034B1B684FF400725A6100BF6F
:100DE00008BD00BFEC3500086005002008B53C4B8D
:100DF0001B685B6903F48063002B0CD0394B9B6A42
:100E0000002B02D0374B9B6A9847354B1B684FF439
:100E100080625A6162E0324B1B685B6903F40063D5
:100E2000002B0CD02F4BDB6A002B02D02D4BDB6A42
:100E300098472B4B1B684FF400625A614EE0284BD9
:100E40001B685B6903F48053002B0CD0254B1B6B94
:100E5000002B02D0234B1B6B9847214B1B684FF490
:100E600080525A613AE01E4B1B685B6903F40053E1
:100E7000002B0CD01B4B5B6B002B02D0194B5B6B18
:100E80009847174B1B684FF400525A6126E0144BE9
:100E90001B685B6903F48043002B0CD0114B9B6BE8
:100EA000002B02D00F4B9B6B98470D4B1B684FF4E8
:100EB00080425A6112E00A4B1B685B6903F40043ED
:100EC000002B0BD0074BDB6B002B02D0054BDB6BF1
:100ED0009847034B1B684FF400425A6100BF08BD9E
:100EE000EC3500086005002000B597B00390019232
:100EF00000930B46ADF80A30A04B1B68039A9A4248
:100F000008D19F4B1B681A6B9D4B1B6842F0010276
:100F10001A6344E09B4B1B68039A9A4208D1984B92
:100F20001B681A6B964B1B6842F002021A6336E08C
:100F3000954B1B68039A9A4208D1914B1B681A6B18
:100F40008F4B1B6842F004021A6328E08F4B1B682A
:100F5000039A9A4208D18A4B1B681A6B884B1B680C
:100F600042F008021A631AE0894B1B68039A9A42FE
:100F700008D1834B1B681A6B814B1B6842F010022F
:100F80001A630CE0834B1B68039A9A4207D17C4B8F
:100F90001B681A6B7A4B1B6842F080021A63019B34
:100FA00003F00F030993019B1B0903F0030308934C
:100FB000019B9B0903F001030793019B1B0A03F0AC
:100FC00003030693019B03F440330593039B1B68C3
:100FD0001593039BDB681493039B5B681393039B3C
:100FE0009B6812930123ADF84630002310934EE026
:100FF000BDF80A20BDF8463013409BB2002B3ED00E
:10100000109B5B00032202FA03F3DB431A46159B95
:101010001A40059B190C109B5B0001FA03F3134364
:101020001593109B5B00032202FA03F3DB431A467D
:10103000149B1A40109B5B00069901FA03F31343BB
:1010400014930122109B02FA03F3DB431A46139B0D
:101050001A400799109B01FA03F313431393109B53
:101060005B00032202FA03F3DB431A46129B1A4089
:10107000109B5B00089901FA03F313431293BDF828
:1010800046305B00ADF84630109B01331093109B47
:101090000F2BADDD039B159A1A60039B149ADA603F
:1010A000039B139A5A60039B129A9A60059BB3F5AF
:1010B000003F5ED1039B1B6A0F93039B5B6A0E93F9
:1010C0000123ADF8463000230D931FE0BDF80A2040
:1010D000BDF8463013409BB2002B0FD00D9B9B00F8
:1010E0000F2202FA03F3DB431A460F9B1A400D9BB3
:1010F0009B00099901FA03F313430F93BDF846309F
:101100005B00ADF846300D9B01330D930D9B072B13
:10111000DCDD039B0F9A1A624FF48073ADF8463002
:1011200000230C931FE0BDF80A20BDF846301340A1
:101130009BB2002B0FD00C9B9B000F2202FA03F3F3
:10114000DB431A460E9B1A400C9B9B00099901FA3F
:1011500003F313430E93BDF846305B00ADF8463001
:101160000C9B01330C930C9B072BDCDD039B0E9A2D
:101170005A62009B002B0FD100233BE10036000890
:101180001C36000804360008083600080C36000833
:101190001036000814360008059B002B02D04FF0D3
:1011A000FF3327E100230B93944B1B68039A9A4269
:1011B00002D100230B9326E0914B1B68039A9A42BD
:1011C00002D101230B931EE08E4B1B68039A9A42B7
:1011D00002D102230B9316E08B4B1B68039A9A42B1
:1011E00002D103230B930EE0884B1B68039A9A42AB
:1011F00002D104230B9306E0854B1B68039A9A42A5
:1012000001D107230B930123ADF8463000230A9345
:10121000EBE0BDF80A20BDF8463013409BB2002B2E
:1012200000F0DA807B4B1B685A6C7A4B1B6842F4E7
:1012300080425A64784B1B680A9A9210023253F823
:1012400022300A9A920002F00C020F2101FA02F2F7
:10125000D24303EA02000A9B9B0003F00C030B9AA3
:1012600002FA03F16C4B1B680A9A92100143023296
:1012700043F82210694B1B681968BDF84620674B7C
:101280001B680A431A60654B1B685A68BDF84630F4
:10129000DB431946614B1B680A405A60019B03F40B
:1012A0008053002B09D05D4B1B689968BDF8462020
:1012B0005A4B1B680A439A600AE0584B1B689A68AD
:1012C000BDF84630DB431946544B1B680A409A6010
:1012D000019B03F40053002B09D0504B1B68D968C5
:1012E000BDF846204D4B1B680A43DA600AE04B4BC1
:1012F0001B68DA68BDF84630DB431946474B1B686C
:101300000A40DA6046490A9B009A41F82320434B81
:101310001B68BDF846205A610A9B0F2B5AD801A2C0
:1013200052F823F0651300087513000885130008B0
:1013300095130008A5130008B5130008B51300089D
:10134000B5130008B5130008B5130008C51300084D
:10135000C5130008C5130008C5130008C51300080D
:10136000C513000808210620FFF756FC0620FFF7EA
:1013700039FC32E008210720FFF74EFC0720FFF779
:1013800031FC2AE008210820FFF746FC0820FFF77F
:1013900029FC22E008210920FFF73EFC0920FFF785
:1013A00021FC1AE008210A20FFF736FC0A20FFF78B
:1013B00019FC12E008211720FFF72EFC1720FFF779
:1013C00011FC0AE008212820FFF726FC2820FFF75F
:1013D00009FC02E000230DE000BFBDF846305B00D1
:1013E000ADF846300A9B01330A930A9B0F2B7FF717
:1013F00010AF0023184617B05DF804FB0036000854
:1014000004360008083600080C36000810360008BC
:10141000143600081C360008E8350008EC350008D2
:101420006005002082B001900B46ADF80230019BB0
:101430001A69BDF802301340184602B0704782B0F6
:1014400001900B46ADF802301346ADF80030BDF800
:101450000220BDF8003013409BB21946BDF802309F
:10146000DA43BDF8003013401B0441EA0302019B3C
:101470009A6100BF02B0704782B001900B46ADF890
:1014800002301346ADF80030BDF80230DA43BDF843
:1014900000301A40BDF80210BDF800300B409BB27E
:1014A0001B041A43019B9A6100BF02B0704782B0CF
:1014B00001900B46ADF80230BDF80220019B9A6105
:1014C00000BF02B0704782B001900B46ADF8023009
:1014D000BDF802301A04019B9A6100BF02B0704748
:1014E00082B003468DF807309DF90730002B0CDBE6
:1014F0009DF8073003F01F0205499DF907305B098D
:10150000012000FA02F241F8232000BF02B0704728
:1015100000E100E082B0034600918DF807309DF9AC
:101520000730002B0ADB009BDAB20C499DF907302B
:101530001201D2B20B4483F800230BE0009BDAB215
:1015400007499DF8073003F00F03043B1201D2B2A4
:101550000B441A7600BF02B0704700BF00E100E004
:1015600000ED00E000B583B02B4B1B681B6803F057
:101570002003002B1DD0284B1B6810330193274BF1
:101580001B68002B0DD0254B1B68019A126802F4D2
:101590000022002A0CBF01220022D2B211460020F4
:1015A00098471D4B1B6820229A601D4B00221A6031
:1015B0002EE0194B1B681B6803F00103002B08D0B9
:1015C000154B1B6801229A60154B6FF002021A60DE
:1015D0001EE0114B1B681B6803F00403002B08D0AE
:1015E0000D4B1B6804229A600D4B6FF003021A60CA
:1015F0000EE0094B1B681B6803F00803002B07D0A3
:10160000054B1B6808229A60054B6FF004021A60B4
:1016100000BF03B05DF804FB24360008A0050020DD
:10162000C005002000B583B02D4B1B681B6803F478
:101630000063002B1ED02A4B1B6828330193294BD3
:101640005B68002B0DD0274B5B68019A126802F48F
:101650000022002A0CBF01220022D2B21146012032
:1016600098471F4B1B684FF400629A601E4B002284
:101670005A6030E01A4B1B681B6803F04003002BD4
:1016800008D0174B1B6840229A60174B6FF002027C
:101690005A6020E0124B1B681B6803F48073002B18
:1016A00009D00F4B1B684FF480729A600E4B6FF09D
:1016B00003025A600FE00A4B1B681B6803F40073B7
:1016C000002B08D0064B1B684FF400729A60064B43
:1016D0006FF004025A6000BF03B05DF804FB00BF66
:1016E00024360008A0050020C005002000B583B006
:1016F0002D4B1B681B6803F40013002B1ED02A4BD4
:101700001B6840330193294B9B68002B0DD0274B5E
:101710009B68019A126802F40022002A0CBF012281
:101720000022D2B21146022098471F4B1B684FF48B
:1017300000129A601E4B00229A6031E01A4B1B681F
:101740001B6803F48033002B09D0174B1B684FF440
:1017500080329A60164B6FF002029A6020E0124BC2
:101760001B681B6803F48023002B09D00E4B1B68F9
:101770004FF480229A600E4B6FF003029A600FE0E4
:10178000094B1B681B6803F40023002B08D0064B91
:101790001B684FF400229A60054B6FF004029A60B8
:1017A00000BF03B05DF804FB24360008A00500204C
:1017B000C005002000B583B02D4B1B681B6803F0EB
:1017C0000063002B1ED02A4B1B6858330193294B12
:1017D000DB68002B0DD0274BDB68019A126802F4FE
:1017E0000022002A0CBF01220022D2B2114603209F
:1017F00098471F4B1B684FF000629A601E4B0022F7
:10180000DA6031E01A4B1B681B6803F48003002B7D
:1018100009D0174B1B684FF480029A60164B6FF08B
:101820000202DA6020E0124B1B681B6803F0807331
:10183000002B09D00E4B1B684FF080729A600E4B44
:101840006FF00302DA600FE0094B1B681B6803F0BE
:101850000073002B08D0064B1B684FF000729A6093
:10186000054B6FF00402DA6000BF03B05DF804FBC3
:1018700024360008A0050020C005002000B583B074
:101880002B4B1B685B6803F02003002B1DD0284BFB
:101890001B6870330193274B1B69002B0DD0254B20
:1018A0001B69019A126802F40022002A0CBF01226F
:1018B0000022D2B21146042098471D4B1B682022FB
:1018C000DA601D4B00221A612EE0194B1B685B6821
:1018D00003F00103002B08D0154B1B680122DA60CE
:1018E000154B6FF002021A611EE0114B1B685B681A
:1018F00003F00403002B08D00D4B1B680422DA60B0
:101900000D4B6FF003021A610EE0094B1B685B6818
:1019100003F00803002B07D0054B1B680822DA6090
:10192000054B6FF004021A6100BF03B05DF804FBC1
:1019300024360008A0050020C005002000B583B0B3
:101940002D4B1B685B6803F40063002B1ED02A4BF1
:101950001B6888330193294B5B69002B0DD0274B03
:101960005B69019A126802F40022002A0CBF01226E
:101970000022D2B21146052098471F4B1B684FF436
:101980000062DA601E4B00225A6130E01A4B1B687D
:101990005B6803F04003002B08D0174B1B68402204
:1019A000DA60174B6FF002025A6120E0124B1B689D
:1019B0005B6803F48073002B09D00F4B1B684FF456
:1019C0008072DA600E4B6FF003025A610FE00A4B2F
:1019D0001B685B6803F40073002B08D0064B1B6880
:1019E0004FF40072DA60064B6FF004025A6100BFD8
:1019F00003B05DF804FB00BF24360008A0050020FA
:101A0000C005002000B583B02D4B1B685B6803F454
:101A10000013002B1ED02A4B1B68A0330193294BC7
:101A20009B69002B0DD0274B9B69019A126802F429
:101A30000022002A0CBF01220022D2B21146062049
:101A400098471F4B1B684FF40012DA601E4B0022B0
:101A50009A6131E01A4B1B685B6803F48033002BFA
:101A600009D0174B1B684FF48032DA60164B6FF0C9
:101A700002029A6120E0124B1B685B6803F480232A
:101A8000002B09D00E4B1B684FF48022DA600E4BFE
:101A90006FF003029A610FE0094B1B685B6803F467
:101AA0000023002B08D0064B1B684FF40022DA609D
:101AB000054B6FF004029A6100BF03B05DF804FBB0
:101AC00024360008A0050020C005002000B583B022
:101AD0002D4B1B685B6803F00063002B1ED02A4B64
:101AE0001B68B8330193294BDB69002B0DD0274BC2
:101AF000DB69019A126802F40022002A0CBF01225D
:101B00000022D2B21146072098471F4B1B684FF0A6
:101B10000062DA601E4B0022DA6131E01A4B1B686A
:101B20005B6803F48003002B09D0174B1B684FF44C
:101B30008002DA60164B6FF00202DA6120E0124B8D
:101B40001B685B6803F08073002B09D00E4B1B6889
:101B50004FF08072DA600E4B6FF00302DA610FE033
:101B6000094B1B685B6803F00073002B08D0064B21
:101B70001B684FF00072DA60054B6FF00402DA6107
:101B800000BF03B05DF804FB24360008A005002068
:101B9000C005002000B583B02B4B1B681B6803F009
:101BA0002003002B1DD0284B1B6810330193274BBB
:101BB0001B68002B0DD0254B1B68019A126802F49C
:101BC0000022002A0CBF01220022D2B211460020BE
:101BD00098471D4B1B6820229A601D4B00221A60FB
:101BE0002EE0194B1B681B6803F00103002B08D083
:101BF000154B1B6801229A60154B6FF002021A60A8
:101C00001EE0114B1B681B6803F00403002B08D077
:101C10000D4B1B6804229A600D4B6FF003021A6093
:101C20000EE0094B1B681B6803F00803002B07D06C
:101C3000054B1B6808229A60054B6FF004021A607E
:101C400000BF03B05DF804FB48360008E005002043
:101C50000006002000B583B02D4B1B681B6803F401
:101C60000063002B1ED02A4B1B6828330193294B9D
:101C70005B68002B0DD0274B5B68019A126802F459
:101C80000022002A0CBF01220022D2B211460120FC
:101C900098471F4B1B684FF400629A601E4B00224E
:101CA0005A6030E01A4B1B681B6803F04003002B9E
:101CB00008D0174B1B6840229A60174B6FF0020246
:101CC0005A6020E0124B1B681B6803F48073002BE2
:101CD00009D00F4B1B684FF480729A600E4B6FF067
:101CE00003025A600FE00A4B1B681B6803F4007381
:101CF000002B08D0064B1B684FF400729A60064B0D
:101D00006FF004025A6000BF03B05DF804FB00BF2F
:101D100048360008E00500200006002000B583B02A
:101D20002D4B1B681B6803F40013002B1ED02A4B9D
:101D30001B6840330193294B9B68002B0DD0274B28
:101D40009B68019A126802F40022002A0CBF01224B
:101D50000022D2B21146022098471F4B1B684FF455
:101D600000129A601E4B00229A6031E01A4B1B68E9
:101D70001B6803F48033002B09D0174B1B684FF40A
:101D800080329A60164B6FF002029A6020E0124B8C
:101D90001B681B6803F48023002B09D00E4B1B68C3
:101DA0004FF480229A600E4B6FF003029A600FE0AE
:101DB000094B1B681B6803F40023002B08D0064B5B
:101DC0001B684FF400229A60054B6FF004029A6082
:101DD00000BF03B05DF804FB48360008E0050020B2
:101DE0000006002000B583B02D4B1B681B6803F074
:101DF0000063002B1ED02A4B1B6858330193294BDC
:101E0000DB68002B0DD0274BDB68019A126802F4C7
:101E10000022002A0CBF01220022D2B21146032068
:101E200098471F4B1B684FF000629A601E4B0022C0
:101E3000DA6031E01A4B1B681B6803F48003002B47
:101E400009D0174B1B684FF480029A60164B6FF055
:101E50000202DA6020E0124B1B681B6803F08073FB
:101E6000002B09D00E4B1B684FF080729A600E4B0E
:101E70006FF00302DA600FE0094B1B681B6803F088
:101E80000073002B08D0064B1B684FF000729A605D
:101E9000054B6FF00402DA6000BF03B05DF804FB8D
:101EA00048360008E00500200006002000B583B099
:101EB0002B4B1B685B6803F02003002B1DD0284BC5
:101EC0001B6870330193274B1B69002B0DD0254BEA
:101ED0001B69019A126802F40022002A0CBF012239
:101EE0000022D2B21146042098471D4B1B682022C5
:101EF000DA601D4B00221A612EE0194B1B685B68EB
:101F000003F00103002B08D0154B1B680122DA6097
:101F1000154B6FF002021A611EE0114B1B685B68E3
:101F200003F00403002B08D00D4B1B680422DA6079
:101F30000D4B6FF003021A610EE0094B1B685B68E2
:101F400003F00803002B07D0054B1B680822DA605A
:101F5000054B6FF004021A6100BF03B05DF804FB8B
:101F600048360008E00500200006002000B583B0D8
:101F70002D4B1B685B6803F40063002B1ED02A4BBB
:101F80001B6888330193294B5B69002B0DD0274BCD
:101F90005B69019A126802F40022002A0CBF012238
:101FA0000022D2B21146052098471F4B1B684FF400
:101FB0000062DA601E4B00225A6130E01A4B1B6847
:101FC0005B6803F04003002B08D0174B1B684022CE
:101FD000DA60174B6FF002025A6120E0124B1B6867
:101FE0005B6803F48073002B09D00F4B1B684FF420
:101FF0008072DA600E4B6FF003025A610FE00A4BF9
:102000001B685B6803F40073002B08D0064B1B6849
:102010004FF40072DA60064B6FF004025A6100BFA1
:1020200003B05DF804FB00BF48360008E00500205F
:102030000006002000B583B02D4B1B685B6803F4DD
:102040000013002B1ED02A4B1B68A0330193294B91
:102050009B69002B0DD0274B9B69019A126802F4F3
:102060000022002A0CBF01220022D2B21146062013
:1020700098471F4B1B684FF40012DA601E4B00227A
:102080009A6131E01A4B1B685B6803F48033002BC4
:1020900009D0174B1B684FF48032DA60164B6FF093
:1020A00002029A6120E0124B1B685B6803F48023F4
:1020B000002B09D00E4B1B684FF48022DA600E4BC8
:1020C0006FF003029A610FE0094B1B685B6803F431
:1020D0000023002B08D0064B1B684FF40022DA6067
:1020E000054B6FF004029A6100BF03B05DF804FB7A
:1020F00048360008E00500200006002000B583B047
:102100002D4B1B685B6803F00063002B1ED02A4B2D
:102110001B68B8330193294BDB69002B0DD0274B8B
:10212000DB69019A126802F40022002A0CBF012226
:102130000022D2B21146072098471F4B1B684FF070
:102140000062DA601E4B0022DA6131E01A4B1B6834
:102150005B6803F48003002B09D0174B1B684FF416
:102160008002DA60164B6FF00202DA6120E0124B57
:102170001B685B6803F08073002B09D00E4B1B6853
:102180004FF08072DA600E4B6FF00302DA610FE0FD
:10219000094B1B685B6803F00073002B08D0064BEB
:1021A0001B684FF00072DA60054B6FF00402DA61D1
:1021B00000BF03B05DF804FB48360008E0050020CE
:1021C0000006002000B589B00390029101920093AF
:1021D0004FF0FF330493A84B1B68039A9A425DD1DA
:1021E000029B072B01D90023AEE1A44B1B681A6B9D
:1021F000A24B1B6842F400121A63029B072B43D8C0
:1022000001A252F823F000BF29220008352200085D
:10221000412200084D2200085922000865220008CA
:10222000712200087D2200080B238DF81B30022349
:10223000059329E00C238DF81B300223059323E03E
:102240000D238DF81B30022305931DE00E238DF81E
:102250001B300623059317E00F238DF81B30022354
:10226000059311E010238DF81B30022305930BE03A
:1022700011238DF81B300223059305E02F238DF8E1
:102280001B300223059300BF029A13465B001344E0
:10229000DB001033039A1344079363E0784B1B6809
:1022A000039A9A425CD1029B072B01D900234BE190
:1022B000724B1B681A6B714B1B6842F480021A63E5
:1022C000029B072B42D801A252F823F0ED2200080E
:1022D000F922000805230008112300081D23000827
:1022E00029230008352300084123000838238DF8EE
:1022F0001B300223059329E039238DF81B3002237C
:10230000059323E03A238DF81B30022305931DE04B
:102310003B238DF81B300223059317E03C238DF8F7
:102320001B300223059311E044238DF81B30022358
:1023300005930BE045238DF81B300223059305E040
:1023400046238DF81B300223059300BF029A1346E3
:102350005B001344DB001033039A1344079301E03E
:102360000023F1E0029BDB0003F01001029B03F06D
:10237000010213465B0013445B000B443D2202FA4A
:1023800003F1029B9A08039B023243F822100A9B36
:1023900023F00702079B1A600A9B03F00702079BC2
:1023A0005A61019B1B78072B22D1079B1A68019B5E
:1023B0001B699B0023F4006323F00303019909695F
:1023C000490001F480610B431A43079B1A60019B8B
:1023D0005B681A46079BDA60019B1B6903F4803334
:1023E000002B1FD0019B9B681A46079B1A6119E0BE
:1023F00000230493079B1B68019AD26852061A4374
:10240000079B1A60079B1A68019B1B6923F48033A2
:1024100023F040031A43079B1A60019B5B681A462E
:10242000079B9A60009B1B78072B44D1079B1A6877
:10243000009B1B699B0023F4006323F003030099B6
:102440000969490001F480610B431A43079B1A6034
:10245000049B002B16D1009B5B681A46079BDA6031
:10246000009B1B6903F48033002B43D0009B9B68C7
:102470001A46079B1A613DE0243600081C36000806
:1024800048360008324B1B68039A9A4207D1314AFA
:10249000029B6FF0050142F82310002354E0079BD4
:1024A0001B6843F08002079B1A60009B5B681A461A
:1024B000079B9A601EE0049B002B01D1002343E0A0
:1024C000079B1B68009AD2685206134343F04002F0
:1024D000079B1A60079B1A68009B1B6923F48033D3
:1024E00023F040031A43079B1A60009B5B681A465F
:1024F000079B9A600B9B002B25D0154B1B68039AFA
:102500009A4205D11449029B0B9A41F8232009E015
:10251000124B1B68039A9A4204D11149029B0B9AF1
:1025200041F82320079B1B6843F01002079B1A60A9
:102530009DF91B3005991846FEF7ECFF9DF91B30FD
:102540001846FEF7CDFF079B184609B05DF804FB5F
:1025500024360008C0050020A005002048360008E9
:10256000E005002082B001900B46ADF80230019BDF
:10257000002B02D16FF001031CE0BDF80230002BEC
:102580000DD1019B1B689B0903F00303022B06D0AE
:10259000019B1B6843F02002019B1A6003E0BDF819
:1025A0000220019B5A60019B1B6843F00102019BC2
:1025B0001A600023184602B0704782B00190019B58
:1025C000002B02D16FF0010306E0019B1B6823F092
:1025D0000102019B1A600023184602B0704782B0C6
:1025E0000190019B1B6803F00103002B0CBF01232A
:1025F0000023DBB2184602B0704782B00190009110
:10260000009B072B02D96FF0010315E00C4B1B68F0
:10261000019A9A4204D10B4A009B52F823300BE0F6
:10262000094B1B68019A9A4204D1084A009B52F850
:10263000233001E04FF0FF33184602B0704700BF6F
:1026400024360008C0050020483600080006002097
:1026500082B003468DF807309DF90730002B0CDB64
:102660009DF8073003F01F0205499DF907305B090B
:10267000012000FA02F241F8232000BF02B07047A7
:1026800000E100E082B0034600918DF807309DF92B
:102690000730002B0ADB009BDAB20C499DF90730AA
:1026A0001201D2B20B4483F800230BE0009BDAB294
:1026B00007499DF8073003F00F03043B1201D2B223
:1026C0000B441A7600BF02B0704700BF00E100E083
:1026D00000ED00E008B5084B1B68002B02D0064B4C
:1026E0001B689847054B1B681A69044B1B6822F04E
:1026F0001F021A6100BF08BD2006002088350008AF
:1027000008B5084B1B68002B02D0064B1B68984786
:10271000054B1B681A69044B1B6822F01F021A61E3
:1027200000BF08BD240600208C35000808B5084B02
:102730001B68002B02D0064B1B689847054B1B6893
:102740001A69044B1B6822F01F021A6100BF08BD02
:10275000280600209035000808B5084B1B68002BA0
:1027600002D0064B1B689847054B1B681A69044B3F
:102770001B6822F01F021A6100BF08BD2C06002052
:102780009435000800B589B0039002910192584B2E
:102790001B68039A9A4213D1564A019B13601C236B
:1027A0008DF81F3004230693534BDB680593534B7E
:1027B0001B681A6C514B1B6842F001021A644DE011
:1027C0004F4B1B68039A9A4213D14E4A019B1360E8
:1027D0001D238DF81F3004230693474BDB680593B8
:1027E000464B1B681A6C454B1B6842F002021A6488
:1027F00034E0454B1B68039A9A4213D1434A019B2C
:1028000013601E238DF81F30042306933A4BDB68B8
:1028100005933A4B1B681A6C384B1B6842F0040254
:102820001A641BE03A4B1B68039A9A4213D1394A47
:10283000019B136032238DF81F30042306932E4B27
:10284000DB6805932D4B1B681A6C2C4B1B6842F000
:1028500008021A6402E04FF0FF3344E0039B1B6957
:1028600023F01F02039B1A61039B88221A60059BB9
:10287000294AA2FB03235B0B5A1E039B9A62029A0E
:1028800013469B0013445B005A1E039BDA62019BB4
:10289000002B17D09DF91F3006991846FFF7F2FE5E
:1028A0009DF91F301846FFF7D3FE039B0122DA6023
:1028B000039B01225A61039B1B6843F00102039BA7
:1028C0001A600FE0039B01225A61039B1B6843F0CF
:1028D0000102039B1A6000BF039B1B6803F0010306
:1028E000002BF9D10023184609B05DF804FB00BFA6
:1028F00088350008200600203C0500201C36000812
:102900008C35000824060020903500082806002099
:10291000943500082C0600205917B7D100B589B0AE
:10292000039002910192564B1B68039A9A4213D16D
:10293000544A019B13601C238DF81F300423069317
:10294000514BDB680593514B1B681A6C4F4B1B684E
:1029500042F001021A644DE04D4B1B68039A9A4203
:1029600013D14C4A019B13601D238DF81F300423A3
:102970000693454BDB680593444B1B681A6C434B2D
:102980001B6842F002021A6434E0434B1B68039A4E
:102990009A4213D1414A019B13601E238DF81F30C8
:1029A00004230693384BDB680593384B1B681A6C7D
:1029B000364B1B6842F004021A641BE0384B1B685C
:1029C000039A9A4213D1374A019B136032238DF840
:1029D0001F30042306932C4BDB6805932B4B1B689D
:1029E0001A6C2A4B1B6842F008021A6402E04FF08E
:1029F000FF3340E0039B1B6923F01F02039B1A6116
:102A0000039B88221A60059B274AA2FB03239B0C89
:102A10005A1E039B9A62029B5A1E039BDA62019B19
:102A2000002B17D09DF91F3006991846FFF72AFE94
:102A30009DF91F301846FFF70BFE039B0122DA6059
:102A4000039B01225A61039B1B6843F00102039B15
:102A50001A600FE0039B01225A61039B1B6843F03D
:102A60000102039B1A6000BF039B1B6803F0010374
:102A7000002BF9D10023184609B05DF804FB00BF14
:102A800088350008200600203C0500201C36000880
:102A90008C35000824060020903500082806002008
:102AA000943500082C06002083DE1B4300B589B056
:102AB000039002910192514B1B68039A9A4216D1DE
:102AC000019B002B02D04E4A019B13601C238DF802
:102AD0001F30042306934B4BDB6805934A4B1B685E
:102AE0001A6C494B1B6842F001021A6456E0474BCE
:102AF0001B68039A9A4216D1019B002B02D0444ACC
:102B0000019B13601D238DF81F30042306933D4B5A
:102B1000DB6805933C4B1B681A6C3B4B1B6842F00F
:102B200002021A643AE03B4B1B68039A9A4216D1A0
:102B3000019B002B02D0384A019B13601E238DF8A5
:102B40001F30042306932F4BDB6805932E4B1B6825
:102B50001A6C2D4B1B6842F004021A641EE02F4BC6
:102B60001B68039A9A4216D1019B002B02D02C4A73
:102B7000019B136032238DF81F3004230693214BF1
:102B8000DB680593204B1B681A6C1F4B1B6842F0D7
:102B900008021A6402E04FF0FF332AE0039B1B692E
:102BA00023F01F02039B1A61039B80221A60059B7E
:102BB0001C4AA2FB03235B0B5A1E039B9A62029AD8
:102BC00013469B0013445B005A1E039BDA62019B71
:102BD000002B0DD09DF91F3006991846FFF752FDC6
:102BE0009DF91F301846FFF733FD039B0122DA6081
:102BF0000023184609B05DF804FB00BF88350008C3
:102C0000200600203C0500201C3600088C350008FA
:102C1000240600209035000828060020943500087E
:102C20002C0600205917B7D182B001900091009A6C
:102C300013469B0013445B005A1E019BDA62019B02
:102C400001225A610023184602B0704784B00190F7
:102C500000912C4B1B68019A9A420BD12A4BDB68DE
:102C600003932A4B1B681A6C284B1B6842F0010225
:102C70001A6435E0264B1B68019A9A420BD1224B0D
:102C8000DB680393214B1B681A6C204B1B6842F0D6
:102C900002021A6424E01F4B1B68019A9A420BD16E
:102CA000194BDB680393194B1B681A6C174B1B6895
:102CB00042F004021A6413E0174B1B68019A9A420F
:102CC0000BD1114BDB680393104B1B681A6C0F4B35
:102CD0001B6842F008021A6402E04FF0FF330EE076
:102CE000019B80221A60039B0C4AA2FB03239B0CCE
:102CF000009A02FB03F35A1E019B9A6200231846B6
:102D000004B07047883500083C0500201C360008D8
:102D10008C350008903500089435000883DE1B438D
:102D200082B00190019B01225A61019B1B6843F014
:102D30000102019B1A6000BF02B0704782B001908F
:102D4000019B1B6823F00102019B1A6000BF02B0C7
:102D5000704782B00190019B5B6A184602B07047D1
:102D600000B589B00390029101924B4B1B68039A06
:102D70009A4213D1494A019B13601C238DF81F30DE
:102D800004230693464BDB680593464B1B681A6C7D
:102D9000444B1B6842F001021A644DE0424B1B6831
:102DA000039A9A4213D1414A019B13601D238DF867
:102DB0001F30042306933A4BDB680593394B1B689D
:102DC0001A6C384B1B6842F002021A6434E0384B2C
:102DD0001B68039A9A4213D1364A019B13601E2343
:102DE0008DF81F30042306932D4BDB6805932D4B84
:102DF0001B681A6C2B4B1B6842F004021A641BE020
:102E00002D4B1B68039A9A4213D12C4A019B1360E5
:102E100032238DF81F3004230693214BDB68059382
:102E2000204B1B681A6C1F4B1B6842F008021A6487
:102E300002E04FF0FF332AE0039B1B6923F01F02DF
:102E4000039B1A61039B80221A60059B1C4AA2FB0C
:102E500003235B0B5A1E039B9A62029A13469B0044
:102E600013445B005A1E039BDA62019B002B0DD0BA
:102E70009DF91F3006991846FFF704FC9DF91F3095
:102E80001846FFF7E5FB039B0122DA600023184692
:102E900009B05DF804FB00BF88350008200600205B
:102EA0003C0500201C3600088C3500082406002054
:102EB0009035000828060020943500082C060020D4
:102EC0005917B7D184B00390029101920093029BED
:102ED000032B02D8019B642B01D900234EE0039BF6
:102EE000DB6A0133019A02FB03F3264AA2FB0323A8
:102EF0005A090399029B0C339B000B445A60029BB6
:102F00005A08039B063253F82230029AD20002F08C
:102F10000802FF2101FA02F2D2431340029AD200C2
:102F200002F00802682101FA02F21146029A5208E0
:102F30001943039B063243F82210009B002B11D04B
:102F4000039B1B6A029A92000F2101FA02F2D243FC
:102F50001340029A9200012101FA02F21A43039BE4
:102F60001A620AE0039B1B6A029A92000F2101FA7F
:102F700002F2D2431A40039B1A620123184604B09E
:102F8000704700BF1F85EB5182B001900091019BFB
:102F90001B6A009A92000F2101FA02F2D2431A40F2
:102FA000019B1A620123184602B0704784B0039057
:102FB00002910192029B032B02D8019B642B01D941
:102FC000002310E0039BDB6A0133019A02FB03F349
:102FD000064AA2FB03235A090399029B0C339B0068
:102FE0000B445A600123184604B070471F85EB510B
:102FF00000B585B0039002910192314B1B68039A92
:103000009A4202D14FF0FF3355E02E4B1B68039AD2
:103010009A4246D12C4B1B681A6A2B4B1B6842F410
:1030200000321A62284B1B681A6A274B1B6822F46D
:1030300000321A62244B1B681A6C234B1B6842F443
:1030400000321A64214B18680023214A0C21FDF735
:103050004BFF204B9B685A00029B1A44029B5B006B
:10306000B2FBF3F2039B9A60039B00229A61039BDD
:1030700000225A61019B1B091B0303F44052039B6E
:103080001A61019B1B0303F48052019B03F4E0636C
:10309000134343F4005343F00C03039AD36000231B
:1030A00009E00D4B1B68039A9A4202D14FF0FF339F
:1030B00001E04FF0FF33184605B05DF804FB00BF98
:1030C000CC350008B43500081C360008003600086E
:1030D000070002003C050020D035000800B591B083
:1030E0000390029100230F9307238DF82430029B55
:1030F0000A9300230B934FF0FF330C934FF480633C
:103100000D9300238DF81030039B043305930023A7
:1031100006930423079300230893029B002B03D0FC
:10312000029B1B78002B01D100232AE0174B186863
:1031300004AB09AA00210191072100910621FFF7A4
:1031400041F80E90029800F0FBF803460F93039BA2
:103150005B6943F08002039B5A610F9B9BB2194647
:103160000E98FFF7FFF900BF0E98FFF738FA0346F5
:10317000002BF9D0039B5B6923F08002039B5A610B
:103180000F9B184611B05DF804FB00BF2436000801
:1031900000B593B005900491039207238DF8303069
:1031A000049B0D9300230E934FF0FF330F934FF4C6
:1031B0008063109301238DF81C30059B0433089322
:1031C0000023099304230A9300230B93049B002BF1
:1031D00001D100232DE0039B002B04D1049B00228E
:1031E0001A70002325E0154B18680CAB07AA0021C4
:1031F0000191002100910521FEF7E4FF1190059B4C
:103200005B6943F04002059B5A61039B9BB21946E0
:103210001198FFF7A7F900BF1198FFF7E0F90346EF
:10322000002BF9D0059B5B6923F04002059B5A6196
:10323000039B184613B05DF804FB00BF243600085A
:1032400008B5154B1B6800224FF4E1311846FFF713
:10325000CFFE114B1B6811491846FFF73FFF0E4B7D
:103260001B680A220E491846FFF792FF0C4B0022FA
:103270009A72094B1B680B491846FFF72FFF064B44
:103280001B6807491846FFF729FF034B1B680649CF
:103290001846FFF723FFE2E7B4350008AC00002032
:1032A000300600208C3600089C36000800230146BA
:1032B0001A46184600F0B2B838B5084B084D5B1BEB
:1032C0009C1007D0043B1D44013C55F80439984735
:1032D000002CF9D1BDE8384000F02AB9D4360008F6
:1032E000D036000870B50D4E0D4D761BB61006D0C9
:1032F000002455F8043B01349847A642F9D1094E01
:10330000094D761B00F00EF9B61006D0002455F8D2
:10331000043B01349847A642F9D170BDC836000875
:10332000C8360008D0360008C83600080000000083
:10333000000000000000000000000000000000008D
:1033400090F800F06DE9024520F007016FF0000CE5
:1033500010F0070491F820F040F049804FF000048D
:103360006FF00700D1E9002391F840F000F1080068
:1033700082FA4CF2A4FA8CF283FA4CF3A2FA8CF3A0
:103380004BBBD1E9022382FA4CF200F10800A4FA07
:103390008CF283FA4CF3A2FA8CF3E3B9D1E904235B
:1033A00082FA4CF200F10800A4FA8CF283FA4CF392
:1033B000A2FA8CF37BB9D1E9062301F1200182FA4C
:1033C0004CF200F10800A4FA8CF283FA4CF3A2FA52
:1033D0008CF3002BC6D0002A04BF04301A4612BA60
:1033E000B2FA82F2FDE8024500EBD2007047D1E963
:1033F000002304F00305C4F100004FEAC50514F0F2
:10340000040F91F840F00CFA05F562EA05021CBFC2
:1034100063EA050362464FF00004A9E770B4184C54
:103420002568D5F848411CB365681F2D25DC38B9DF
:10343000AB1C0135656044F82310002070BC704758
:1034400004EB850C0228CCF88820D4F888614FF072
:10345000010202FA05F246EA0206C4F88861CCF8D5
:103460000831E5D1D4F88C311343C4F88C31DFE74F
:1034700005F5A674C5F84841D6E74FF0FF30DDE703
:10348000A036000813481449144A914204D050F859
:10349000044B41F8044BF8E7114812494FF0000281
:1034A000884202D040F8042BFAE7FDF719F9FFF73C
:1034B00019FFFDF7C9F90C4880F30988EFF3148070
:1034C00050F0020080F31488BFF36F8FFFF7B8FE4F
:1034D000FFF7FEBFD43600080000002020050020C2
:1034E0002005002070060020700C002010B51EF092
:1034F000040F0CBFEFF30884EFF30984A06910F800
:10350000020C214600F002F8206010BDFEE700002A
:10351000024B13B10248FFF7C9BE7047000000001C
:10352000B9320008F8B500BFF8BC08BC9E46704729
:0C353000F8B500BFF8BC08BC9E46704710
:10353C003A3D0A3D0F3D243D323D023D053D133DD4
:10354C000D3D0C3D233D113D263D013D173D083DF4
:10355C00093D000000E000E000ED00E010E000E0BC
:10356C0000E100E0000000E0001000E0000004E0DA
:10357C00F0ED00E090ED00E030EF00E000000040E6
:10358C000004004000080040000C004000280040EF
:10359C00002C004000300040003400400038004057
:1035AC00003C0040004000400044004000540040FB
:1035BC0000580040005C00400070004000000140DA
:1035CC000010014000140140002001400023014084
:1035DC00002C014000300140003401400038014013
:1035EC00003C0140004001400044014000480140C3
:1035FC00005001400000024000040240000802405C
:10360C00000C024000100240001C0240003002403E
:10361C0000380240003C0240006002401060024052
:10362C0028600240406002405860024070600240D6
:10363C0088600240A0600240B86002400064024012
:10364C001064024028640240406402405864024006
:10365C007064024088640240A0640240B864024076
:10366C00002004E0000000500000000000000000FA
:10367C00010203040607080900000000010203040C
:10368C000D0A4C65207465787465203A20000000A2
:10369C000D0A0000F80000203A3D0A3D0F3D243D84
:1036AC00323D023D053D133D0D3D0C3D233D113D8D
:0C36BC00263D013D173D083D093D000082
:0836C800113500082902000879
:0436D00001020008EB
:1036D40001000000000000000000000000000000E5
:1036E4000000000000000000000000000201600073
:1036F400080202000005040103000000006CDC0263
:10370400001BB70000366E010201500108040700D7
:10371400000400020200000000BD010580DE8002FA
:1037240000BD01050201C0000802020000040003FC
:103734000300000000D8B805006CDC0200D8B8050E
:103744000000000000000000000000000000000075
:103754000000000000000000000000000200500112
:1037640008040700000400020200000000BD010577
:1037740080DE800200BD01050024F40054686973F2
:10378400206D65737361676520636F6D6573206673
:10379400726F6D2053544D333246343131203A2DFB
:1037A400290D0A00000000000000000000000000D5
:1037B4000000000000000000000000000000000005
:1037C400F80000200000000000000000E4030020D6
:1037D4004C040020B404002000000000000000009D
:1037E40000000000000000000000000000000000D5
:1037F40000000000000000000000000000000000C5
:1038040000000000000000000000000000000000B4
:1038140000000000000000000000000000000000A4
:103824000000000000000000000000000000000094
:103834000000000000000000000000000000000084
:103844000000000000000000000000000000000074
:103854000000000000000000000000000000000064
:103864000000000000000000000000000000000054
:1038740001000000000000000E33CDAB34126DE6F1
:10388400ECDE05000B00000000000000000000005A
:103894000000000000000000000000000000000024
:1038A4000000000000000000000000000000000014
:1038B4000000000000000000000000000000000004
:1038C40000000000000000000000000000000000F4
:040000050800348536
:00000001FF
